:100000000C948B050C94A8050C94A8050C94A805D9
:100010000C94A8050C94A8050C94A8050C94A805AC
:100020000C94A8050C94A8050C94E7320C94BB33EF
:100030000C94382C0C94A8050C94A8050C94A805D5
:100040000C94A8050C94A8050C94A8050C94A8057C
:100050000C94A8050C94DB2C0C94A8050C94A80512
:100060000C94A8050C94A8050C94A8050C94A8055C
:100070000C94A8050C94A8050C94A8050C94A8054C
:100080000C94A8050C94A8050C94A8050C94A8053C
:100090000C94A8050C94A8050C94A8050C94A8052C
:1000A0000C94A8050C94A8050C94A805A900AA0016
:1000B0004900A80046004D004E004A00AC00AE00CA
:1000C0004C0047004B00AB000A002530313662007F
:1000D0003A200025303258000A722F632030313226
:1000E000333435363738394142434445460A0029CE
:1000F0000A002575002F002575005D280025640085
:100100002000256400200025640020002564007C78
:100110000025303258006D6F7573656B6579205B13
:1001200062746E7C782079207620685D2872657014
:100130002F61636C293A205B00FD377A585A000022
:1001400004E6D6B4460200210116000000742FE533
:10015000A3E0010C009F5D003D8889C65436C3179B
:100160004FE4F9E963ECA738E907ABE2294F2790A0
:10017000183DF0185498E8A994890D3971D32B32A1
:100180003CA6A4EE5B0F0D97A77D4E5D6B3E8502EE
:10019000C308F1A2A444C3CC75183E9BF9B2DD3765
:1001A00060CCAC60F6896A06FE53CF5858F65CA660
:1001B0001ECF771A1E524FB8A5AA251BBC39D6856B
:1001C0003E073C14D9AA94C1BFE2D6107BC2598B1A
:1001D000196541CF8897FFDC8B001C25B897858374
:1001E0008E373CCD810A47A6791DD670236466F40C
:1001F000BE12C42671810E0000F7D7BD940CD452F4
:100200007B0001BB018D02000053A48F92B1C46733
:10021000FB020000000004595A000000000000002A
:10022000002A2B2800000000000000000000000051
:100230000000000029000000002C1E342021222490
:10024000342627252E362D3738271E1F202122231E
:100250002425263333362E37381F040506070809B0
:100260000A0B0C0D0E0F1011121314151617181976
:100270001A1B1C1D2F3130232D35040506070809D4
:100280000A0B0C0D0E0F1011121314151617181956
:100290001A1B1C1D2F3130354C00000000000000DF
:1002A000000000000000000000000000000000004E
:1002B000000000000000000000000000007E0F00B1
:1002C000D4FFFFFFC700000078313A0964656C6114
:1002D00079282A31306D73293A2025750A323A0976
:1002E000696E74657276616C286D73293A20257584
:1002F0000A333A096D61785F73706565643A202549
:10030000750A343A0974696D655F746F5F6D617861
:100310003A2025750A353A09776865656C5F6D6125
:10032000785F73706565643A2025750A363A0977F7
:100330006865656C5F74696D655F746F5F6D61782A
:100340003A2025750A00703A097072696E74207639
:10035000616C7565730A643A097365742064656637
:1003600061756C74730A75703A092B310A646E3AC0
:10037000092D310A6C743A092B31300A72743A092A
:100380002D31300A4553432F713A09717569740A4A
:100390000A7370656564203D2064656C7461202A71
:1003A000206D61785F7370656564202A202872650E
:1003B00070656174202F2074696D655F746F5F6D67
:1003C0006178290A77686572652064656C74613AA2
:1003D00020637572736F723D25642C2077686565A4
:1003E0006C3D25640A53656520687474703A2F2F3C
:1003F000656E2E77696B6970656469612E6F7267CF
:100400002F77696B692F4D6F7573655F6B657973B6
:100410000A004D3E20004D25753A25733E20003FD1
:100420000A003D2025750A003F0A00646566617573
:100430006C74730A0025750A003F0A000A092D2012
:1004400056616C756573202D0A00710A000A092D2A
:10045000204D6F7573656B6579202D0A003F004351
:100460003E20004C25640A000A092D205374617453
:100470007573202D0A686F73745F6B6579626F61A5
:1004800072645F6C65647328293A20253032580AFB
:100490006B6579626F6172645F70726F746F636FA6
:1004A0006C3A20253032580A6B6579626F6172644C
:1004B0005F69646C653A20253032580A6B65796D46
:1004C00061705F636F6E6669672E6E6B726F3A2044
:1004D000253032580A74696D65725F7265616433E4
:1004E0003228293A202530386C580A002573000A32
:1004F000092D20436F6E736F6C65202D0A455343A1
:100500002F713A09717569740A6D3A096D6F7573C7
:10051000656B65790A000A092D204D6167696320C2
:100520002D0A443A094465627567204D657373610D
:10053000676520546F67676C650A583A094D6174A6
:10054000726978204465627567204D6F6465205438
:100550006F67676C65202D2053686F77206B657916
:100560007072657373657320696E206D6174726952
:100570007820677269640A4B3A094B6579626F614A
:10058000726420446562756720546F67676C6520EC
:100590002D2053686F77206B6579707265737320B7
:1005A0007265706F72740A4D3A094465627567200E
:1005B0004D6F75736520546F67676C650A563A090D
:1005C00056657273696F6E0A533A09537461747594
:1005D000730A433A09416374697661746520436F15
:1005E0006E736F6C65204D6F64650A46312D463120
:1005F000303A0953776974636820746F204C6179CD
:10060000657220302D392028463130203D204C3075
:10061000290A302D393A0953776974636820746F59
:10062000204C6179657220302D390A475241564578
:100630003A0953776974636820746F204C61796557
:100640007220302028616C7465726E617465290AAD
:10065000423A094A756D7020746F20426F6F746C56
:100660006F616465720A4553433A094A756D70209B
:10067000746F20426F6F746C6F61646572202861C3
:100680006C7465726E617465290A453A0950726925
:100690006E7420454550524F4D2053657474696EF9
:1006A00067730A4241434B53504143453A09436CF7
:1006B00065617220454550524F4D0A4E3A094E4BE6
:1006C000524F20546F67676C650A006B65796D61E6
:1006D000705F636F6E6669672E7261773A202530AE
:1006E00032580A2E737761705F636F6E74726F6C2D
:1006F0005F636170736C6F636B3A2025750A2E63BC
:100700006170736C6F636B5F746F5F636F6E747235
:100710006F6C3A2025750A2E737761705F6C637475
:100720006C5F6C6775693A2025750A2E7377617066
:100730005F7263746C5F726775693A2025750A2E63
:10074000737761705F6C616C745F6C6775693A2078
:1007500025750A2E737761705F72616C745F7267C2
:1007600075693A2025750A2E6E6F5F6775693A20A4
:1007700025750A2E737761705F67726176655F65B4
:1007800073633A2025750A2E737761705F62616327
:100790006B736C6173685F6261636B7370616365D7
:1007A0003A2025750A2E6E6B726F3A2025750A2E37
:1007B000737761705F6573636170655F63617073A8
:1007C0006C6F636B3A2025750A0064656275675F1C
:1007D000636F6E6669672E7261773A2025303258F2
:1007E0000A2E656E61626C653A2025750A2E6D6170
:1007F000747269783A2025750A2E6B6579626F618B
:1008000072643A2025750A2E6D6F7573653A20253E
:10081000750A006565636F6E6669673A0A646566A6
:1008200061756C745F6C617965723A2025750A0098
:100830003F004E4B524F3A206F66660A004E4B52B5
:100840004F3A206F6E0A000A6D6F7573653A206F1C
:1008500066660A000A6D6F7573653A206F6E0A004E
:100860000A6B6579626F6172643A206F66660A008E
:100870000A6B6579626F6172643A206F6E0A000AD2
:100880006D61747269783A206F66660A000A6D615C
:10089000747269783A206F6E0A000A64656275673F
:1008A0003A206F66660A000A64656275673A206FCF
:1008B0006E0A000A0A4A756D70696E6720746F20AF
:1008C000626F6F746C6F616465722E2E2E20004310
:1008D0003E2000436C656172696E67204545505249
:1008E0004F4D0A005B735D005B575D005B535D001D
:1008F0005B525D005B445D005B435D001C03760062
:10090000690061006C003A00660036003400630044
:1009100032006200330063000000160353006900D8
:10092000640065007300770069007400630068006C
:10093000000010034C0075006D00610042006F0064
:10094000740000000403090409027B00040100A0F4
:10095000FA0904000001030101000921110100014D
:100960002240000705810308000109040100020379
:100970000000000921110100012222000705820365
:100980002000010705030320000109040200010300
:1009900000000009211101000122BC0007058403A9
:1009A00020000109040300020300000009211101D5
:1009B0000001222200070585032000010705050329
:1009C0002000011201000200000008EEEE232001C9
:1009D00000010203010631FF0974A1010975150028
:1009E00026FF009520750881020976150026FF0074
:1009F000952075089102C00660FF0961A101096296
:100A0000150026FF00952075088102096315002650
:100A1000FF00952075089102C005010902A101851A
:100A2000020901A1000509190129051500250195F3
:100A300005750181029501750381010501093009E0
:100A4000311581257F9502750881060938158125A4
:100A50007F950175088106050C0A38021581257FEE
:100A6000950175088106C0C005010980A1018503B3
:100A700019012AB700150126B700950175108100EC
:100A8000C0050C0901A101850419012AA002150164
:100A900026A002950175108100C005010906A1017B
:100AA0008506050719E029E7150025019508750158
:100AB00081020507190029EF1500250195F0750140
:100AC0008102050819012905950575019102950115
:100AD00075039101C005010906A101050719E02967
:100AE000E7150025019508750181029501750881BA
:100AF000010507190029FF150026FF009506750856
:100B000081000508190129059505750191029501D6
:100B100075039101C00011241FBECFEFDAE0DEBFE4
:100B2000CDBF12E0A0E0B1E0ECE7FDE602C0059029
:100B30000D92A43DB107D9F724E0A4EDB2E001C0C5
:100B40001D92A838B207E1F70E9470160C9459362E
:100B50000C940000FF93EF93E091D402F091D50242
:100B6000309709F00995EF91FF910895FC01859167
:100B7000803011F0EFDFFBCF0895FF27E0E230E295
:100B800047FF0CC0419597FF09C0EDE26095709555
:100B900080959095611D711D811D911D27FF02C0DB
:100BA000219530E350E2AA27660F771F881F991F0F
:100BB000AA1FA41710F0A41B63955A95A9F7AA3091
:100BC00008F0A95FA05DAF93F395611571058105EC
:100BD000910541F7ED3211F4EF93F395F21718F404
:100BE0003F93F395FBCF8F91B5DFFA95E1F7089529
:100BF000E991F9918591803021F0853219F0AADFD1
:100C0000F9CF089520E0E89455915532C1F350335F
:100C100011F4689455915A3348F4505390F3220FCD
:100C2000022E220F220F200D250FF4CF0EF4219556
:100C300089919991533619F3533729F1533559F165
:100C4000BC0188279927E8945C3621F48991999111
:100C500068945591543639F446EF7EF077FF0DC015
:100C60008FEF9FEF0AC055374AE039F0583540E121
:100C700021F0523642E009F00895FF93EF937DDFB3
:100C8000EF91FF91B7CFFF93EF93FC0181918030FB
:100C9000B9F360DFFBCFFF93EF9368DFF1CFDF9312
:100CA000CF93CDB7DEB72596A3DFCF91DF9108951F
:100CB00081E0089581E008959C013A9521153F4116
:100CC00050F5FC01EE27F170BC0166277270AC0193
:100CD000442754709C012227387094FF0EC080E195
:100CE000EF2B09F480E0672B09F08062452B09F0B7
:100CF0008064232B89F08068089581E0EF2B09F44C
:100D000080E0672B09F08260452B09F08460232B7B
:100D100019F08860089580E00895CF93DF93EB0188
:100D20000E945C06FE010995DF91CF910895CF9353
:100D3000DF93EC01805E9109089720F061E97BE088
:100D4000209711F469E179E0CE010E948D068C2F85
:100D50000E947508DF91CF910895CF93DF93EC0146
:100D60000E94C608CE01805E9109089720F068E9CC
:100D70007BE0209711F460E279E0CE010E948D06BD
:100D8000DF91CF91089581E0089581E008950E9458
:100D9000C506089508950E94CA060895A5E0B0E02A
:100DA000E4EDF6E00C949D3549835A833091DB02E3
:100DB00089819A81311119C0662399F0222389F023
:100DC0000E94F10C182F682F89819A810E94C30C10
:100DD00069817A81812F0E94C01F2596E3E00C94DF
:100DE000B9350E94DA0C182FF3CF0E94F10C6981FB
:100DF0007A81F1CFFC01262F40815181628173817C
:100E000084810E94CE06089581E00895CF93DF93F8
:100E1000EC0160E00E94FA06BE010E94CB06DF9161
:100E2000CF910895E1E0F0E0DF0102C0AA0FBB1FFF
:100E30006A95E2F7BD01DF0102C0AA0FBB1F4A9508
:100E4000E2F76A2B01C0EE0F2A95EAF7962F982356
:100E5000961302C08E2B0895E0958E230895242FBB
:100E6000462F682F8091E5020E9412070E94230CF2
:100E700008950E94131508950E9417150895089566
:100E80000E94B50B0E943F072FEF84E39CE02150A6
:100E900080409040E1F700C0000008950E944007A4
:100EA0000E94FF2C08950E9440070E94102D089573
:100EB0000F931F93CF93DF93EC018B010E94001AD5
:100EC000811106C080E0DF91CF911F910F910895AD
:100ED000B801CE010E94C61D8823A1F3B801CE013E
:100EE0000E94C706882371F3B801CE010E945C28D6
:100EF000882341F3B801CE010E946F2A882311F3A1
:100F0000B801CE010E94FD208823E1F2B801CE0194
:100F10000E9417278823B1F2F8018281882361F0AB
:100F2000CA35FDE5DF0701F158F4C115ECE5DE0730
:100F300091F0CE3DDC4591F0C8010E94C306C3CFBD
:100F4000CC358DE5D80769F090F0C73ADD45A1F7BB
:100F50000E945307B7CF0E944E07B4CF0E941E12C3
:100F6000F7CF0E945811E8CF0E946211E5CF0E948E
:100F70006611E2CFCF93DF93EC0161E00E94FA06A5
:100F8000BE010E945807DF91CF9108950E941A2C4C
:100F90000E94080808950E940C080E941F2C0895C2
:100FA000829590E09C01220F331F220F331F2C7C6F
:100FB00095958795959587958373282B30E0C90182
:100FC000880F991F8A7A359527952575822B089564
:100FD000CF93DF93D92F0E94D007C82F8D2F0E9467
:100FE000D0079C2FDF91CF91089508950E94F507B7
:100FF000089581E008950E94F90708950895CF9318
:10100000C82F0E94F6078C2F0E94FB07CF910895EE
:1010100080E00E94FF0708950E94CB2A0E94FF07EC
:101020000895CF930E94CB2AC82F8091D6028C17A7
:1010300079F0C093D6020E94A42C6093D7027093DB
:10104000D8028093D9029093DA028C2F0E94FF0776
:10105000CF910895ABE0B0E0E0E3F8E00C949E356A
:101060004F83588769877A878B8761110E94571051
:101070001E821D8285E0FE013796DE0111960190E9
:101080000D928A95E1F78091700482FF0CC00E9456
:101090001A10882319F082E00E9427110E94011083
:1010A00081110E9491108C819D81892B61F449816D
:1010B0005A816B817C818D819E810E94580F2B9675
:1010C000E2E00C94BA3589819A8189238F3F79F3C4
:1010D000CE0101960E9404078111E9CFF0CFFC01F7
:1010E000808191810E941E0D0895CF93C82F88237F
:1010F000E1F08CEF8C0F813AD0F48C2F0E94C32644
:10110000811113C06C2F80910001909101010E9408
:10111000402B882329F08C2F0E94EF0F0E949F10F4
:101120008C2F0E94E70F0E949F10CF91089580E2BC
:101130008C0F883048F4C77081E001C0880FCA95D1
:10114000EAF70E943A10EFCFEBE5EC0FE33040F402
:10115000F0E0E05BFE4F808190E00E94002BE5CF45
:10116000E8E5EC0FE73150F4F0E0EE0FFF1FEE5D25
:10117000FE4F808191810E94162BD7CFC03FA8F2ED
:101180008C2F0E94F4160E94DF17CFCF882379F1AD
:101190009CEF980F913A28F40E94EF0F0E949F1045
:1011A000089590E2980F983050F4877091E001C054
:1011B000990F8A95EAF7892F0E944010EFCF9BE59F
:1011C000980F933028F490E080E00E94002B08955F
:1011D00098E5980F973128F490E080E00E94162B54
:1011E0000895803F20F00E945C170E94DF17089549
:1011F0001F93CF93DF93182FEB010E947508209760
:1012000039F4812F0E94C608DF91CF911F91089574
:101210008FE99FE00197F1F700C000002197EFCF21
:1012200070E060E0893311F460E570E00E94F80836
:101230000895882321F00E943A100E949F1008957B
:10124000882321F00E9440100E949F100895B0E072
:10125000A0E0EDE2F9E00C9497356C01D62FC72F92
:10126000FC010281F580F2949FE0F9220E94301087
:10127000E82E8823B9F0E02E0023A1F08C2F807F88
:10128000803421F080E28D0F8830D0F0809170049E
:1012900082FF16C082E00E9427110E94301091E068
:1012A000E82EE926BC2EB2948FE0B822FBE0FB15B5
:1012B00008F468C0EB2DF0E0E55AF94C0C94813548
:1012C000E12CF0CF1C2F1F70C07F11F01295107F02
:1012D000002399F0112359F080E28D0F883010F02F
:1012E000D11107C0812F0E943A100E949F108D2FAC
:1012F00041C0812F0E944A10F8CF8D2F0E94C6084E
:10130000112309F43FC080E28D0F883010F0D11115
:1013100004C0812F0E94401003C0812F0E945010F2
:101320000E949F102FC01C2F1F70C07FC03211F071
:101330001295107FDD2381F0D13009F482C00023A3
:1013400009F48BC0FF2009F45BC0F601858180FFA2
:10135000CECF8F70858354C08091700482FD33C0DE
:10136000002359F0112329F0812F0E943A100E9486
:101370009F1080E00E94750805C080E00E94C608AA
:101380001111C7CFEB2DE850FF0B349720F40E94CA
:10139000CB2A0E94FF07EE2089F00E94161080FDE4
:1013A0000DC0F60112820E9410100E94370CC60177
:1013B0000E94670B0E9410100E94430CCDB7DEB74D
:1013C000E9E00C94B3350023E9F0F11006C00E9467
:1013D0006610812B0E941909D5CF21E0F21206C0B8
:1013E0000E946610812B0E947A10CCCF35E0F31258
:1013F000EECF0E9491100E94FE0F812B0E946D1073
:10140000812FE8CFF11003C00E94911011C081E03C
:10141000F81212C00E943710812309F4B3CF0E9442
:1014200091100E94FE0F912F909589230E946D10BC
:10143000812F0E942009A6CF95E0F91609F4A2CFCA
:10144000E3CF002329F0E5E0EF1508F49BCFD8CFD8
:10145000F4E0FF1508F496CFEBCFFF2049F3D93322
:1014600049F4FFEF27EE33E0F15020403040E1F740
:1014700000C000008D2F0E94C60884CF8C2F869557
:101480008695837069F0813009F07CCF8D2F9C2F79
:101490009370011102C090E080E00E94162B72CF81
:1014A0008D2F9C2F9370011102C090E080E00E946C
:1014B000002B68CF8D2F002329F00E94F4160E9484
:1014C000DF1760CF0E945C17FACF8C2F837079F5FD
:1014D000011158CF4D2F429546954770440F440F48
:1014E0008D2F8F70042E01C0880F0A94EAF72D2FDC
:1014F0002071D4FF07C02FE030E001C0220F4A95D1
:10150000EAF72095C695C695C370822BC23049F084
:1015100058F4C13019F00E94110C34CF0E940B0C0A
:1015200031CF0E94170C2ECF0E94080C2BCF86952E
:10153000002311F08C2F8170882309F423CF4D2FC5
:10154000429546954770440F440F8D2F8F70042E9F
:1015500001C0880F0A94EAF72D2F2071D4FF07C02D
:101560002FE030E001C0220F4A95EAF72095C6959A
:10157000C695C370822BC23049F058F4C13019F0BF
:101580000E94620CFFCE0E945C0CFCCE0E94680C94
:10159000F9CE0E94230CF6CECF70002329F08C2FB9
:1015A0000E94370C8D2F16CF8D2F0E9420098C2F73
:1015B0000E94430CE7CED23F51F160F4D03FB9F026
:1015C000D13F81F0002309F45AC0F11090CE8C2F46
:1015D0008F7121C0D33F11F1D43FA1F780917004E6
:1015E00082FD26C08C2F8F71002311F314C00023BD
:1015F00049F084E08F1508F4C5CE8C2F8F710E94BE
:10160000500CC0CE95E09F1508F4BCCEF6CF8C2FC1
:101610008F710111CDCF0E94370CB4CE002329F079
:101620008C2F8F710E942E0CADCE0E942A0CAACE58
:101630000023C1F00E941610843041F40E941D1155
:101640008C2F8F710E94430CE12C9CCEE4E0EF15AF
:10165000D8F3CF718C2F0E94370C63E08C2F0E943F
:10166000FF10F2CFF4E0FF1530F40E941D1164E08A
:101670008C2F8F71F4CF81E00E942711E5CFFF20DE
:1016800059F0D93309F0F6CE2FEF37EE83E0215031
:1016900030408040E1F7ECCE8C2F8F7189CF0F93D3
:1016A0001F93CF93DF93EC01688179818A810E9437
:1016B000290D8C010E946E0C0E94070CB801CE010E
:1016C0000E942709DF91CF911F910F910895CF9329
:1016D000DF93EC018B819C81892B29F08881998192
:1016E00089238F3F51F4DF91CF910895CE010E945D
:1016F0004F0BCE010E940607F6CFCE010E94BA071B
:101700008111F4CF0E943010882369F38A818823E5
:1017100051F38091700482FFE6CF82E00E9427118E
:10172000E2CF882321F00E944A100E949F10089562
:10173000882321F00E9450100E949F10089590E08D
:1017400080E00E94002B90E080E00E94162B0E9417
:1017500057100E949F100E947D180E94DF17089565
:101760000E94F70F0E949F0B08950E9447100E944D
:10177000B00B089592959F70963091F058F4925F57
:101780009F70923058F4803F19F030F4883E30F466
:1017900081E008959A5FF4CF843FD1F380E008950B
:1017A000883EB0F3813FD1F7F3CFFC018381948170
:1017B000892B29F08081918189238F3F11F480E06A
:1017C0000895808191810E941E0D0E94BA0B089598
:1017D000A5E0B0E0EEEEFBE00C949E352596E2E04D
:1017E0000C94BA35A6E0B0E0E8EFFBE00C949E352F
:1017F0002696E2E00C94BA3508950E94FC0B0895F9
:101800000E94FD0B8093E6020E949F0B08950895AD
:101810000E94000C08959091E602892B0E94000C12
:1018200008959091E60289230E94000C08959091FA
:10183000E60289270E94000C08950E94FC0B08957F
:101840000E941D0C08950E94200C8093E5020E94C6
:101850009F0B089580E00E94230C089591E001C041
:10186000990F8A95EAF7892F0E94230C089521E0A9
:1018700030E001C0220F8A95EAF78091E502822BC1
:101880000E94230C089521E030E001C0220F8A95C8
:10189000EAF720958091E50282230E94230C0895A7
:1018A00021E030E001C0220F8A95EAF78091E5023D
:1018B00082270E94230C08959091E502892B0E94B3
:1018C000230C08959091E50289230E94230C08952A
:1018D0009091E50289270E94230C08950895262FF0
:1018E000277091E001C0990F2A95EAF723E07695D9
:1018F00067952A95E1F7FB01EE0FFF1FE60FF71F33
:10190000E40FF51F50E040E0682F70E08191DF01A7
:1019100011979B01042E02C0369527950A94E2F791
:10192000217021952827292328272C934F5F5F4F6B
:101930004330510559F70895A82FA77023E09695D5
:1019400087952A95E1F7FC01EE0FFF1FE80FF91FBD
:10195000E60FF71F50E040E080E0219130E00A2ED2
:1019600002C0369527950A94E2F721703327042E9A
:1019700001C0220F0A94EAF7822B4F5F5F4F43307A
:10198000510559F70895282F862F903F41F0911166
:1019900007C0622F70E04FED52E02C3040F0089508
:1019A0009C5F9230E0F7622F70E04CED52E00E94B5
:1019B0006F0CF5CF282F892F903F89F0911105C02A
:1019C0006FED72E02C3030F008958C5F823038F487
:1019D0006CED72E0822F90E00E949C0C089580E0F4
:1019E000F3CFCF92DF92FF920F931F93CF93DF93AA
:1019F0006C010091E5028091E602082BC7E0D0E07F
:101A000010E0FC2EC8010C2E02C0959587950A9413
:101A1000E2F780FD0CC02197A0F7F12C8F2DDF910C
:101A2000CF911F910F91FF90DF90CF900895B60155
:101A30008C2F0E94F313019771F3F0CFCF93DF93B4
:101A4000EC010E94F10CBE010E94F313DF91CF91D3
:101A500008951F93CF93DF93EB019091DB029923BD
:101A600039F0CB010E941E0DDF91CF911F91089597
:101A7000882369F0CB010E94F10C182F682FCE014A
:101A80000E94C30CBE01812F0E94F313EDCFCB0146
:101A90000E94DA0C182FF6CF1F93CF93DF93C091DB
:101AA000E70216E08091E8028C1304C0DF91CF9129
:101AB0001F910895D0E01C9FF0011D9FF00D11248F
:101AC000E751FD4F4081518162817381848195810D
:101AD0000E94F20B2196C770E5CF409119035091F7
:101AE0001A0360911B0370911C0380911D03909158
:101AF0001E030E94F20B08951F93CF93DF938091F2
:101B00001E03807F09F049C080911B03882309F4DC
:101B100044C08091E702C091E8026091190370917E
:101B20001A03A0911C03B0911D03D62FD72316E0F2
:101B3000C81799F190E0109711F0DF3F19F4019662
:101B40008770F6CF189F9001199F300D1124F9016D
:101B5000E751FD4F41814713F2CF40814613EFCF4C
:101B600042814111ECCF438154814A1B5B0B483CBD
:101B7000510528F780911E038F70806180931E03AA
:101B8000F901E251FD4F80818F708061808389E18E
:101B900093E00E94670B0E944C0DDF91CF911F9143
:101BA0000895A1E1B0E0E7EDFDE00C9496358C01DD
:101BB00085E0F801DE011D9601900D928A95E1F70E
:101BC000F801E28089E1C82E83E0D82E60911C03E1
:101BD00070911D036115710509F44EC190911903AF
:101BE00020911A03892F82238F3F09F445C1408138
:101BF0005181A380B480F0901B03F501E61BF70B25
:101C0000FF2009F4EAC080911E03382F307FE83CA2
:101C1000F10508F0A3C031116DC0FE2C251316C0CC
:101C2000941314C0E11012C08F70806180931E0362
:101C30000E946D0DC6010E94670B80911E03F80182
:101C400085838F2D6196EAE00C94B235A114B1041E
:101C500029F0842F85238F3F09F027C180E0F82FDA
:101C6000F170DF2E80FF3CC08091E7022091E802F6
:101C700036E0821315C04D875E878D859E850E9454
:101C80001E0D292F22952F702230F0F0243018F5E8
:101C90009F70F1F0F8019581907FD1F4D12C1EC096
:101CA00090E0389FF001399FF00D1124E751FD4F6E
:101CB0006181651306C06081641303C06281E6120E
:101CC0000FC001968770D5CF9F7011F0882331F334
:101CD000805E883018F3C8010E94670BFD2CB1CFDD
:101CE000EE2009F4AECF80911E03816080931E0325
:101CF000F12CA7CF251306C0941304C0F801EE20E1
:101D000009F487C0C8010E94D50B882319F1EE2081
:101D100009F180911E03803270F0209119033091F7
:101D20001A0338872F831986BB86AA868C87CE0133
:101D300007960E94670B86E0F801A9E1B3E00190E5
:101D40000D928A95E1F70E947C0D0E946D0DFF2493
:101D5000F39477CFC8010E94670BF9CF311113C0FC
:101D60007A2DB98AA88A6E2D89890E94E80B89E1AB
:101D700093E00E94670B86E0F60111928A95E9F7DD
:101D80000E946D0DB5CF25130FC094130DC0E11047
:101D90000BC0F8018583C8010E94670B86E0F6013D
:101DA00011928A95E9F74DCFC8010E94D50B88237F
:101DB00089F2EE2079F280911E03803208F4BBCFC5
:101DC0002091190330911A033A8329831B82BD8223
:101DD000AC828E83CE010196ACCFE83CF10508F0D1
:101DE0003EC0FE2CEE2009F4B5CF25132AC0941373
:101DF00028C080911E0380FD1BC0982F907FC1F0EA
:101E0000F8018583903F31F0982F907F905F8F701D
:101E1000892B8583C8010E94670B86E0F801A9E140
:101E2000B3E001900D928A95E1F70E946D0D09CF04
:101E300086E0F801A9E1B3E001900D928A95E1F7FF
:101E400000CFC8010E94D50B811175CF80911E0370
:101E5000816080931E03C8010E94670BF2CE7A2D29
:101E6000B98AA88A6E2D89890E94E80B86E0F6015E
:101E700011928A95E9F7D9CFEE2009F46BCFC8010A
:101E80000E94D50BF82E882309F464CF86E0F80170
:101E9000A9E1B3E001900D928A95E1F789E193E021
:101EA0000E946F080E947C0DC0CF81E08E25D7CEA6
:101EB000ACE0B0E0EEE5FFE00C949D354F83588731
:101EC00069877A878B879C87CE0107960E94D10D00
:101ED000882369F08A859B85892B39F04F81588545
:101EE000842F85238F3F09F06BC016E05FC086E02A
:101EF000FE013796DE01119601900D928A95E1F769
:101F00008A859B85892B89F38F81988589238F3FCB
:101F100061F32091E80230E0C901019687709927AA
:101F20004091E7024817190671F40E94B50B109210
:101F3000E8021092E70286E0E9E1F3E0DF011D929A
:101F40008A95E9F7D2CF96E0929FD001939FB00D8A
:101F50001124A751BD4FFE01319601900D929A9523
:101F6000E1F78093E8020E944C0DBFCF819FC00132
:101F7000112487519D4F0E94D10D8823E9F0E091F3
:101F8000E7021E9FF0011124E751FD4F408151816E
:101F900062817381848195810E94F20B8091E702B6
:101FA00090E00196877099278093E7028091E7027D
:101FB0009091E8028913DACF2C96E3E00C94B935BE
:101FC00069857A858B859C850E94F20B8ECF682F60
:101FD00080910001909101010E94C02B0895682F0B
:101FE00080910001909101010E94CE2B0895809173
:101FF0000001909101010E94DC2B0895809144031F
:1020000008950E94982C2091420330914303821B33
:10201000930B9C0181E02838334108F480E0089557
:10202000809141038595859585950895809141031B
:10203000877008950E94982C20913F0330914003AF
:10204000821B930B8838934148F08091410382FBB7
:10205000882780F991E089278170089580E0FCCF7E
:1020600090914103977081E009F480E00895809198
:102070006903089590916903892B809369030895FA
:102080008095909169039823909369030895109225
:102090006903089590916803892B809368030895DC
:1020A0008095909168039823909368030895109207
:1020B0006803089580936703089510926703089555
:1020C00080936603089510926603089580914503F6
:1020D000089508950E9469100895909144039817F7
:1020E00021F0809344030E946A10089508950E948D
:1020F00076100895CF93C82F8091700482FF0FC08F
:10210000809145038C1759F00E94982C90934303BB
:1021100080934203C09345038C2F0E947710CF9188
:10212000089580914503882349F010924503109249
:1021300043031092420380E00E9477100895CF93EA
:10214000DF93E0910001F0910101809169038083A8
:10215000E0910001F0910101808190916803892B49
:102160008083809145038823B9F00E94011081117A
:102170000E949110E0910001F09101018081909105
:102180004503892B808380910001909101010E9479
:102190002C2B81110E949110E0910001F09101011E
:1021A00080916603982F9095808189238083E091A8
:1021B0000001F0910101808190916703892B808358
:1021C000C0910001D091010140E250E06FE173E065
:1021D000CE010E94E235892B59F080E2FE01AFE189
:1021E000B3E001900D928A95E1F7CE010E94D82AC2
:1021F000DF91CF91089508950E94FB10089590916A
:10220000700492FF17C098E0899F90011124622BFF
:10221000609341030E94370C0E94982C90934003D6
:1022200080933F03809141038595859585950E9414
:10223000FC1008950E94370C0895109241031092EB
:10224000400310923F0380E00E94FC10089590919B
:1022500041038095892380934103282F277091F4AF
:10226000282F082E000C330B9217130659F090916B
:10227000700492FF07C08595859585950E94430C53
:102280000E941D1108959091700492FB222720F95D
:10229000281769F080FB92F99093700480916F0485
:1022A000909170040E94951182E00E942711089578
:1022B0008091700482FB882780F991E089270E9431
:1022C0004311089581E00E944311089580E00E9427
:1022D000431108956FEF7FEF90E080E00E943B365E
:1022E000089590E080E00E941736883E9E4F19F4D2
:1022F0000E949B19089580E0089582E090E00E947A
:102300000F36089583E090E00E940F360895CF9332
:1023100084E090E00E940F36C82F82E290E00E9495
:102320000F36982F8C2FCF910895CF93C92F682FF8
:1023300084E090E00E941D366C2F82E290E00E94C3
:102340001D36CF910895AB01BC018FE090E00E9453
:102350002F360895AB01BC0183E190E00E942F3637
:10236000089560E070E0CB010E94AA11089560E03A
:1023700070E0CB010E94A3110E94B111089568EE94
:102380007EEF90E080E00E943B3660E082E090E0EB
:102390000E941D3660E083E090E00E941D3610929E
:1023A000E60260E084E090E00E941D3664E082E294
:1023B00090E00E941D3660E085E090E00E941D36AE
:1023C00060E086E090E00E941D366FEF87E090E0CD
:1023D0000E941D3640E050E0BA0188E090E00E9483
:1023E0002F3660E08DE090E00E941D3640E050E026
:1023F000BA0188E190E00E942F3660E087E190E02A
:102400000E941D3640E050E0BA018CE190E00E944D
:102410002F3670E060E080E290E00E943B3640E0C2
:1024200050E0BA0188E190E00E942F3680E00E94DF
:10243000B4190E94E3190E94B71108950E94BF11B8
:102440000895682F8EE090E00E941D3608950E9446
:10245000A42C609376037093770380937803909312
:102460007903609372037093730380937403909362
:10247000750308950E94A42C6093760370937703EC
:10248000809378039093790360936E0370936F0346
:1024900080937003909371030895089508950E94A6
:1024A0004E12089508950E94521208958BE39FE200
:1024B0000E94C12A0E94D91B0E944D120E944F12F5
:1024C000089581E008950E94611208950895089585
:1024D0000E9466120E94671208950E94F7140E94DB
:1024E000FE0708950E948F2C0E94F3190E94E115A7
:1024F0000E946D120E9439230E9453120895AAE08F
:10250000B0E0E5E8F2E10C9496350E94F1150091F7
:102510006C0310916D0380E00E94301508171907B5
:1025200069F50E94982C8C0180916A0390916B034D
:1025300008171907A1F08FEF89838A831B820E94F5
:10254000982C8160782F9D838C8349815A816B817F
:102550008D810E942A0810936B0300936A030E94E6
:1025600020280E94582381110E943A120E949F182D
:102570000E9411082A96EAE00C94B23580917A0301
:1025800081FD0E9439150E946312E82E80E00E94AE
:1025900030158C01A0906C03B0906D038A159B05DB
:1025A00069F1A826B126F12CCC24C394D12CC50105
:1025B0008C219D21892BC1F0EE20B1F0FE821F827B
:1025C00021E0C8018C219D21892B09F420E0288776
:1025D0000E94982C8160782F9A8789874E815F812D
:1025E00068858A850E942A08F394CC0CDD1C8CE057
:1025F000F812DDCF10936D0300936C030E94271235
:10260000AECFCF93DF930E94F813EC01811521E543
:10261000920708F042C0811530E5930708F09FC08B
:10262000883E910530F5803E910508F094C0883AC7
:10263000910588F4853A910508F086C081309105AE
:1026400009F489C0009709F486C0049708F083C094
:10265000D0E0C0E080C08F3B9105D0F7C85AD0E0F1
:10266000CC0FDD1FCD5ADE4F0990D881C02DD46428
:1026700072C0811540E2940750F4C11581E0D8077B
:1026800008F069C0C03FD10518F3D06564C081155A
:102690009044F0F2DF70D06A5EC0811535E5930793
:1026A00018F5811544E5940708F086C0C11583E547
:1026B000D80708F06DC0C11522E5D20708F463C041
:1026C000CE018370992721E030E002C0220F331F32
:1026D0008A95E2F7C695C69580E2C89FE00111246D
:1026E000C22BD32BDC6837C0811539E59307A8F4DA
:1026F000811548E5940708F064C0C11586E5D80740
:1027000008F0A6CF8C2F0E949A14C82FD0E0DC2F9F
:10271000CC27CC27DF71D0621EC081152AE5920735
:1027200008F454C090568115904208F091CF8D2F37
:102730008F710E949A1490E0982F882788279F71A4
:102740009C012C2BE901E7CFC55AD0E0CF57DE4FD3
:10275000C881D0E0D064CE01DF91CF910895282FB9
:1027600026952695237040E2249F900111248370C2
:10277000C1E0D0E002C0CC0FDD1F8A95E2F7C22B8A
:10278000D32BDD68E8CFDC2FCC27C16FD06AE3CF35
:10279000CE018370992721E030E002C0220F331F61
:1027A0008A95E2F7C695C69540E2C49FE0011124E0
:1027B000C22BD32BDA68CFCFD82FCC27C46FD06AE7
:1027C000CACFD82FCC27C06FD06AC5CF8F700E94D8
:1027D0009A1434E0D695C7953A95E1F7CF709C2FBF
:1027E000EC01D069B8CF0E94C01F0E940113089568
:1027F00082389105B9F1B0F48133910509F47DC0B7
:1028000048F48932910509F46DC08A32910509F4C2
:102810007BC008958533910509F45FC08933910524
:1028200009F10895833E9105D9F138F4803E910570
:1028300029F1823E910579F10895863E9105D9F1FD
:10284000873E910509F43EC0843E910541F52091F3
:10285000700421FF24C080916F0484FD19C087EEAD
:1028600090E0089520916F04237009F05AC02091E0
:10287000700423FF14C089E290E0089520916F0452
:1028800020FD38C03091700430FF09C024FF43C0E0
:1028900090E080E0089520916F0422FDF7CF089525
:1028A00020916F0422FD3AC03091700430FD39C090
:1028B00024FFF5CFEDCF20916F0423FFF0CF24FD4F
:1028C000E7CFCDCF20916F0423FD2EC0309170044F
:1028D00031FFEECF84EE90E0089520916F0425FF44
:1028E000DECFC9CF20916F0425FD21C02091700457
:1028F00023FFD5CF89E390E0D2CF20916F0426FF4C
:10290000CECF8AE290E0089520916F0426FFC7CFD2
:1029100081E390E0089583EE90E0089582EE90E0E8
:10292000089580EE90E0089586EE90E0089585E3A6
:1029300090E0089590916F0492FF06C0282F2871AF
:102940002830F9F4877F846093FF06C0282F287110
:102950002831F1F4877E84612091700420FF06C045
:10296000382F38713830D9F4877F816021FF06C055
:10297000282F28712831D1F4877E816194FD877ECC
:102980000895282F24712430F9F68B7F8860DCCFDE
:10299000282F2471243101F78B7E8861DDCF382FF9
:1029A0003171313019F78E7F8860E0CF282F217187
:1029B000213121F78E7E8861E1CF0E946A1108954E
:1029C0000E94F1158FE39CE90197F1F700C0000028
:1029D0000E94F11580E00E94301580FF04C00E9423
:1029E000DD140E94FF2C08950E94E01408950E94B7
:1029F0007111811102C00E941E120E947D118093EC
:102A00007A030E9487119093700480936F040E9450
:102A1000F4140E9482110E94080C8091E5020E9429
:102A2000200C089508950E941215089508950E949B
:102A300016150895E82FF0E0EE0FFF1FED58FB4F3D
:102A400021E030E002C0220F331F6A95E2F7808157
:102A500091812823392381E0232B09F480E0089514
:102A6000E82FF0E0EE0FFF1FED58FB4F80819181C2
:102A7000089588ED90E00E94B6051F921F9283EDA5
:102A800090E09F938F930E944F0680ED90E00E940C
:102A9000B60580917304909174040E94E8079F9397
:102AA0008F938AEC90E09F938F930E944F0688EC5F
:102AB00090E00E94B6058DB79EB708960FB6F894C1
:102AC0009EBF0FBE8DBF089580EA8A95F1F70895E5
:102AD00000C008950E9464150895F894E82FE295C7
:102AE000EF70F0E031A1282F2F7081E090E001C05D
:102AF000880F2A95EAF7982F9095932391A392A196
:102B0000892B82A378940895CF93DF9381E90E9463
:102B10006D15C4E8D1E089918F3F11F00E946D15C9
:102B200081E0C039D807B9F7DF91CF910895EF92CE
:102B3000FF920F931F93CF937C01C62FF894519A65
:102B4000599878940E946815E4E8F1E041E050E07B
:102B500010E000E081918F3F81F0A82FA295AF7027
:102B6000B0E090962C9130E08F7002C0359527959B
:102B70008A95E2F7CA0120FF02C090E080E0082BAE
:102B8000192B440F551F81E0E039F80719F781E947
:102B90000E946D1561E00115110509F460E08C2FAC
:102BA0000E946A158C2F90E0880F991F8E0D9F1D33
:102BB000FC0111830083CF911F910F91FF90EF9043
:102BC00008950E9484151092740410927304109258
:102BD00072041092710481E00E9422160E9439074B
:102BE0000895A2E0B0E0E7EFF5E10C949D351A827C
:102BF000198260E0CE0101960E94971542E050E0F4
:102C0000BE016F5F7F4F81E794E00E94E23521E0D3
:102C1000009709F420E0892B31F089819A81909303
:102C200072048093710441E063E774E081E794E00B
:102C30000E942316182F0E943C07812F2296E3E062
:102C40000C94B9350895CF92DF92EF92FF921F93C3
:102C5000CF93DF936C017B01C42F222349F081E0E5
:102C600080937D030E94982C90937C0380937B0338
:102C700010917D0311110AC010E0812FDF91CF91D7
:102C80001F91FF90EF90DF90CF90089580917B038C
:102C900090917C030E94B02C059770F3D0E0CC0F8C
:102CA000DD1FAE01B601C7010E94E235892B41F05C
:102CB000AE01B601C7010E94EF3510927D03DDCF52
:102CC00010E0FBCF0E94B72F0E9472120E94C42F07
:102CD00008950E94C92F0E947F120E94E72F089535
:102CE0000E94312C0E949D2F0E9456120E94621653
:102CF0000E9469160E946812FBCF8091840380FFB6
:102D00000DC06091070170E0660F771F6038710594
:102D100070F56115710569F1862F089581FF07C06F
:102D20006091070184E0689FB0011124EFCF6091AA
:102D3000070182FD0AC0809183038823A9F02091B6
:102D4000060160910701821710F088E0ECCF869FA2
:102D5000C001112433E0880F991F3A95E1F7622FE3
:102D600070E00E946D35D2CF68E070E0D5CF8FE77C
:102D7000089581E008958091840380FF0CC06091E4
:102D8000030170E0759567957595679561157105F7
:102D900049F1862F089581FF06C06091030170E01C
:102DA00075956795F3CF6091030182FD0BC09091FB
:102DB00082039923A1F0609102018091030196178B
:102DC00038F0682F70E06038710500F38FE70895E0
:102DD000899FC001112470E00E946D35F4CF61E03D
:102DE00070E0D7CF81E00895803F31F40E947D16D6
:102DF0008195809388030895813F19F40E947D1680
:102E0000F8CF823F31F40E947D168195809387032D
:102E10000895833F19F40E947D16F8CF893F29F465
:102E20000E94BB168093890308958A3F21F40E9473
:102E3000BB168195F7CF8B3F31F40E94BB1681956D
:102E400080938A0308958C3F19F40E94BB16F8CF33
:102E5000843F31F4809186038160809386030895D6
:102E6000853F21F4809186038260F7CF863F21F46D
:102E7000809186038460F1CF873F21F4809186039F
:102E80008860EBCF883F21F4809186038061E5CF95
:102E90008D3F31F480918403816080938403089591
:102EA0008E3F21F4809184038260F7CF8F3FB9F782
:102EB000809184038460F1CF90918703803F59F41F
:102EC0008091880387FF0DC01092880391110BC079
:102ED0001092830308C0813F81F480918803181603
:102EE0009CF3992381F08091890390918A03892B27
:102EF00009F064C0109282030895823F49F497FF5D
:102F0000F0CF10928703809188038111ECCFE0CF3E
:102F1000833F19F41916ACF3E4CF20918903893F5C
:102F200029F41216F4F610928903DBCF8A3F19F4C4
:102F300027FFD7CFF8CF20918A038B3F29F427FFB3
:102F4000D0CF10928A03CDCF8C3F19F41216CCF358
:102F5000C8CF843F31F4809186038E7F80938603AF
:102F6000C0CF853F21F4809186038D7FF7CF863FC8
:102F700021F4809186038B7FF1CF873F21F48091EC
:102F80008603877FEBCF883F21F4809186038F7E75
:102F9000E5CF8D3F31F4809184038E7F809384034D
:102FA000A0CF8E3F21F4809184038D7FF7CF8F3F98
:102FB00009F097CF809184038B7FF0CF08958091A3
:102FC0007A0383FF7EC086E191E00E94B60580917E
:102FD00086031F928F9381E191E09F938F930E94CC
:102FE0004F068FE091E00E94B60580918703282F5D
:102FF000082E000C330B3F938F938CE091E09F934E
:103000008F930E944F068AE091E00E94B60580915E
:103010008803282F082E000C330B3F938F9387E0F3
:1030200091E09F938F930E944F0685E091E00E946C
:10303000B60580918903282F082E000C330B3F938F
:103040008F9382E091E09F938F930E944F0680E0E0
:1030500091E00E94B60580918A03282F082E000C6B
:10306000330B3F938F938DEF90E09F938F930E944C
:103070004F068AEF90E00E94B605809183031F926D
:103080008F9387EF90E09F938F930E944F0685EF79
:1030900090E00E94B605809184031F928F9382EF87
:1030A00090E09F938F930E944F068FEE90E00E94D6
:1030B000B6058DB79EB74C960FB6F8949EBF0FBE5F
:1030C0008DBF0E94982C9C0190918703809188036A
:1030D000982B21F0309381032093800390918903F2
:1030E00080918A03982B21F030937F0320937E03F5
:1030F00085E893E00E94F22A089586E0E5E8F3E08F
:10310000DF011D928A95E9F71092830310928203E2
:10311000109284030895FC01828181110EC0838185
:1031200081110BC08481811108C091E085818111DA
:1031300001C090E0892F8170089581E0FCCFA6E066
:10314000B0E0E5EAF8E10C949D3586E0E5E8F3E0CF
:10315000DE01119601900D928A95E1F71092870396
:10316000109288031092890310928A038B819C81AC
:10317000892B89F080918003909181030E94B02C6B
:10318000AC01909183039923C9F1809108018417C0
:10319000150608F440C08D819E81892B91F08091A5
:1031A0007E0390917F030E94B02CAC01909182032A
:1031B000992309F471C0809104018417150608F45D
:1031C00079C0BE016F5F7F4F85E893E00E94EE2BD0
:1031D000811105C085E893E00E948B1881110E943F
:1031E000DF1786E0FE013196A5E8B3E001900D926D
:1031F0008A95E1F72696E3E00C94B9352091090110
:103200008AE0289F900111242417350720F69F5F3C
:103210009093830302C09F3FD1F71B81112359F084
:103220000E947D169FEF11160CF491E0899F802D6E
:103230001124809387031C81112359F00E947D166D
:103240009FEF11160CF491E0899F802D112480933B
:10325000880330918703332309F49DCF209188039D
:10326000222309F498CF45EB3403C001112499239C
:1032700059F09093870345EB2403900111243323E5
:1032800039F03093880387CF81E080938703F3CFB1
:1032900081E0809388037FCF209105018AE0289FF9
:1032A000900111242417350708F08BCF9F5F90936E
:1032B000820302C09F3FD1F71D81112359F00E9464
:1032C000BB169FEF11160CF491E0899F802D1124FD
:1032D000809389031E81112359F00E94BB169FEF32
:1032E00011160CF491E0899F802D112480938A039C
:1032F00030918903332309F464CF20918A03222378
:1033000009F45FCF45EB3403C0011124992359F030
:103310009093890345EB240390011124332339F062
:1033200030938A034ECF81E080938903F3CF81E00D
:1033300080938A0346CF83E290E00E940F36883064
:1033400089F484E290E00E940F368E3C59F485E2C5
:1033500090E00E940F3691E08E3009F090E0892FC6
:103360008170089580E0FCCFCF93C82F6FEF81115B
:1033700068E083E290E00E941D366FEFC1116EECB1
:1033800084E290E00E941D366FEFC1116EE085E28D
:1033900090E00E941D36CF910895089586E290E056
:1033A0000E940F36682F70E090E080E00895089545
:1033B000CF93C62F0E94D7196C2F86E290E00E940F
:1033C0001D36CF91089580E00E94B41960E070E04E
:1033D000CB010E94D8190E949B1E0E94392081E0D7
:1033E0000E94B41908950E94CD190E94CE190E941E
:1033F000D7190E949B19811102C00E94E3190895F8
:10340000CF93FB01C281CC2309F19C0122513F459E
:103410002031310520F582510E944920C0E08C2FD7
:10342000CF91089581E00E94370C43E062E081E093
:103430000E942F07F3CF81E00E94430C43E062E03B
:1034400081E00E942F07EBCF82E0F6CF8031FFE5CD
:103450009F0789F381319F45B9F3C1E0E0CF803107
:10346000EFE59E07F9F281319F45C9F682E0DBCF97
:103470002FEFFC01208308951F93CF93DF93EC017E
:10348000162F888120911A0430911B04232B79F088
:103490008E3F09F05CC08981833020F085508330F5
:1034A00008F055C0612FCE010E94DC1B50C08B304C
:1034B00009F4E3C0D0F4843009F481C060F48230B0
:1034C00009F44DC008F06EC08130F1F1612FCE01DA
:1034D0000E94381A3CC0863009F487C008F47AC0CC
:1034E0008A30A0F78FEF888332C0803109F49DC005
:1034F00000F58D3009F480C008F47AC08E3009F4EC
:1035000083C08F3019F780911C0490911D04892B82
:10351000F1F06B8170E06D317105C8F489819A8199
:10352000AE014C5F5F4F9827892798270E9414208F
:103530000EC0823109F47FC008F47AC0833109F4E7
:103540008BC08E3F19F6AECF198289E08A83612F36
:10355000CE010E94B42DDF91CF911F9108958981F2
:10356000823071F0833079F0813009F0AFCF0E9462
:10357000A42C0E9487356A837B838C839D83E7CF4D
:103580000E94CE19F6CF80911C0490911D04892BC6
:10359000F1F280E00E9430159827892798279B83B5
:1035A0008A83D5CF8981823009F090CF6A817B816F
:1035B0008C819D810E9487350E94D819C8CF4B818C
:1035C0006A8189810E94CA1D9827892798279D832F
:1035D0008C83BDCF2C813D813227232732274B811D
:1035E0006A8189810E94F41DB2CF0E949B1EAFCFD9
:1035F0000E94EA1F8983ABCF0E94EC1F982789277E
:1036000098279A838983A3CF6B8170E06D31710510
:1036100008F09DCF89819A81AE014C5F5F4F98275A
:10362000892798270E94EF1F92CF0E9439208FCFC1
:103630000E94C81DDFCF6B8170E06D31710508F00D
:1036400086CF89819A81AE014C5F5F4F9827892789
:1036500098270E94231F7BCF6B8170E06D3171052D
:1036600008F075CF89819A81AE014C5F5F4F982732
:10367000892798270E94461F6ACF80911C04909149
:103680001D04892B09F463CFCE010E94B42D2FEFC6
:1036900081EE94E0215080409040E1F700C00000AE
:1036A0000E94FF2C54CFAAE0B0E0E9E5FBE10C94C6
:1036B00095350DE913E08BE8C82E83E0D82EF12C68
:1036C00097E0E92E9924939425E1A22E24E0B22ECE
:1036D000D6010D931D936D01BE016F5F7F4F8F2D3E
:1036E0000E94731E892B09F056C0F8013896DF013D
:1036F0008E2D1D928A95E9F789819A81D8011196BC
:103700009C938E938F8112968C9312978D81139632
:103710008C931397888514968C93149789851596A6
:103720008C9315978B819C8117969C938E931697FB
:1037300018961C9218978A8587FF37C01E961C9290
:103740001E921D9780FF03C0D80118969C9281FF9E
:1037500004C0F80190859260908782FF07C0D8016D
:1037600018969C911897946018969C9383FF04C0B8
:10377000F80190859860908784FF07C0D80118965B
:103780009C911897906118969C9385FF04C0F8014E
:10379000808580628087015F1F4FF394F8E0FF12FD
:1037A00097CF2A96EBE00C94B135F801B686A58642
:1037B000C9CF0E94531B0895CF92DF92FF920F93BF
:1037C0001F93CF93DF93CDB7DEB72A970FB6F89448
:1037D000DEBF0FBECDBF8C01603269F5DC011196F2
:1037E000EC911197EE3038F5F0E0E959F94C0C9472
:1037F000813588E0EAE1F1E0DE01119601900D9259
:103800008A95E1F780E2F80111928A95E9F785E05F
:10381000D8018C9311961C92119712961C921297B4
:1038200013961C92139788E0FE013196149601902E
:103830000D928A95E1F72A960FB6F894DEBF0FBE77
:10384000CDBFDF91CF911F910F91FF90DF90CF906F
:10385000089580EEF8018083118212821382EBCFEB
:1038600013968C911397682F70E0762F6627129627
:103870008C91860F972F911D092E000CAA0BBB0B64
:1038800035E0880F991FAA1FBB1F3A95D1F7AC01ED
:10389000BD01405E5F4F6F4F7F4F481759076A0762
:1038A0007B0748F2803E9105A105B10520F6413E17
:1038B00051056105710520F040EE50E060E070E0D8
:1038C000481B590BBC01675C7E4FC8010E94D9356B
:1038D000B2CFFC01F280D38040E06D2D8F2D0E948D
:1038E000151E982789279827D8018D939C9341E02E
:1038F0006D2D8F2D0E94151E982789279827F80176
:103900009383828398CF15962D913C91322723275C
:1039100032272115BCE53B0741F480911C049091AE
:103920001D04892B11F430E020E041E0F80184818E
:10393000811101C040E0D80113966C911397129643
:103940008C910E94481E77CF40E250E06FEF70E00C
:103950000E94F83580911C04F801808380911A043C
:10396000818312828AE08383148284E0858363CF1B
:1039700081E090E090931B0480931A0482E390E02E
:1039800090931904809318040E94982C9093170424
:103990008093160450CF80911A0490911B04892BB8
:1039A00091F16AE080E00E941A15D82E64E080E070
:1039B0000E941A15F82E80911604909117040E9407
:1039C000B02C8536910568F1DD2059F1FF2049F1D1
:1039D0000E94982C909317048093160480911804E9
:1039E0009091190401979093190480931804892BDE
:1039F00051F410921B0410921A0481E090E090930D
:103A00001D0480931C0480911C04D8018C93809128
:103A10001A0411968C9311978091180412968C9326
:103A20000ACF82E390E09093190480931804EBCFBF
:103A300010921D0410921C04FECE40E250E06FEF85
:103A400070E00E94F835F7CEFC018281853069F084
:103A5000863011F18111EFCE80E21D928A95E9F74F
:103A60001082118288E08283E6CE13968C919AE0D0
:103A7000F92EFE0131966F01DF01EF2D1D92EA95BF
:103A8000E9F7B6010E94731ED8018D93F6010190EB
:103A90000D92FA94E1F7CFCE13968C919AE034967A
:103AA000DE01119601900D929A95E1F72B813C81F0
:103AB0002115BCE53B0741F440911C0450911D04C5
:103AC000452B11F430E020E03C832B83BE016F5F77
:103AD0007F4F0E94871EF80180830E94531BABCE4C
:103AE000A5E0B0E0E6E7FDE10C949E359093760406
:103AF00080937504811520E2920730F40E949706A6
:103B00002596E2E00C94BA3580EF89838A8381E0C0
:103B10008B830E94982C8160782F9D838C834981B0
:103B20005A816B818D810E942A08EACFA5E0B0E01E
:103B3000ECE9FDE10C949E35909376048093750436
:103B4000811520E2920730F40E94AD062596E2E04E
:103B50000C94BA3580EF89838A831B820E94982C4B
:103B60008160782F9D838C8349815A816B818D81FF
:103B70000E942A08EBCFCF93DF93EC010E94701DC7
:103B8000CE010E94961DDF91CF91089581E00895A6
:103B900084E008950F931F93CF93DF93843008F54B
:103BA00061111FC04C30E8F4042F10E0000F111F0A
:103BB00028E1829F000D111D1124C80187960E94E3
:103BC0000F36C82FD0E0DC2FCC27C80188960E9482
:103BD0000F369E01282BC901DF91CF911F910F91C4
:103BE000089590E080E0F8CF1F93CF93DF93122FDA
:103BF0008430B8F4611115C04C3098F4C42FD0E073
:103C0000CC0FDD1F98E1899FC00DD11D1124632FBA
:103C1000CE0187960E941D36612FCE0188960E94A4
:103C20001D36DF91CF911F910895FF920F931F933F
:103C3000CF93DF93F42E843040F5611126C024E049
:103C4000829F8001112409571F4F82E090E0442396
:103C500011F090E080E0800F911F0E940F36C82F76
:103C6000D0E0DC2FCC2783E090E0FF2011F081E052
:103C700090E0800F911F0E940F369E01282BC901F2
:103C8000CDB7DEB7E5E00C94B73590E080E0F8CF33
:103C90000F931F93CF93DF93142F022F8430F0F4F0
:103CA00061111CC094E0899FE0011124C957DF4FC6
:103CB00082E090E0442311F090E080E0632F8C0FCD
:103CC0009D1F0E941D3683E090E0112311F081E0DA
:103CD00090E0602F8C0F9D1F0E941D36DF91CF91C9
:103CE0001F910F9108959B01883070F49AE0899F8D
:103CF000B001112469567F4F4AE050E0C9010E948B
:103D0000FF3590E080E008958FEF9FEF08959B01CD
:103D1000883070F49AE0899FB001112469567F4F72
:103D20004AE050E0C9010E94413690E080E00895E9
:103D30008FEF9FEF0895AAE0B0E0E1EAFEE10C9476
:103D4000913560901C0470901D0481E090E0909388
:103D50001D0480931C049CEA892E90E0992E2EEA83
:103D6000A22E20E0B22E30EBC32E30E0D32E10E096
:103D700000E0F12CE12C502E0E94580621E030E0AA
:103D80008017110641F03CF0F701EE0FFF1FEC0D1C
:103D9000FD1D259134914E2D60E0852D0E94F41D6E
:103DA0008FEFE81AF80A9CE0E916F10429F70E945F
:103DB0005A068017110609F054F421E030E041E082
:103DC00060E0852D0E94481E21E030E00BC0F40128
:103DD0002591349141E060E0852D0E94481EF50157
:103DE0002591349140E060E0852D0E94481E0F5FD0
:103DF0001F4FE4E08E0E911CF4E0AF0EB11C88E181
:103E0000C80ED11C0430110509F0B3CFFE01319664
:103E10007F018AE011928A95E9F78FEF9FEF9E83E9
:103E20008D8387E08A8710E0B701812F0E94871E6B
:103E30001F5F1830C9F770921D0460921C042A9607
:103E4000EFE00C94AD35EF92FF920F931F93CF9359
:103E5000DF93EC018A017C01E60EF71ECE01879606
:103E6000CE15DF0529F4CDB7DEB7E6E00C94B63504
:103E7000C036D10540F40E940F36F80180830F5FF1
:103E80001F4F2196EBCFF8011082F9CFB0E0A0E0F0
:103E9000ECE4FFE10C949035EC017B018A01803663
:103EA0009105D8F480E690E08C1B9D0B8617970750
:103EB000A0F03E0127E2620E711C80911C049091DB
:103EC0001D042E01460E571E892B61F07E01C7018D
:103ED0008796E414F50409F043C0CDB7DEB7E0E1FE
:103EE0000C94AC356E0131E0C322DD24C0FF0FC05D
:103EF000CE0186960E940F36F80190818927982777
:103F0000892781159C4519F48FEFF80180835701AB
:103F100040FE13C0F1E0AF1AB10848018A0C9B1CA7
:103F2000C3018E0D9F1D0E940F36F40190818115F3
:103F30009C4519F48FEFF4018083F801EC0DFD1D11
:103F40002FEFCA14DB0410F69081818181159C4506
:103F500011F42083218382E0C80ED11C3296F1CF68
:103F6000E0E6EE16F10440F4F701EC1BFD0BE00F68
:103F7000F11F60810E941D36FFEFEF1AFF0AA7CFE5
:103F8000462F20911A0430911B04232B01F5703F1A
:103F900039F4603FE1F480917504909176040895BE
:103FA0008430A8F4711106C06C3088F460E00E947F
:103FB000CA1D08957D3F39F4611109C041E060E0F8
:103FC0000E94151E08957C3F11F46623C1F390E012
:103FD00080E0089580E1089589E193E00895EF92EB
:103FE000FF920F931F93CF93DF93EC018A017C0123
:103FF000E60EF71ECE0189519F4FCE15DF0529F43D
:10400000CDB7DEB7E6E00C94B635C93123E0D20770
:1040100040F40E940F36F80180830F5F1F4F2196F6
:10402000E9CFF8011082F9CFB0E0A0E0EAE1F0E2D8
:104030000C9498357C016A018C01060F171FEC0166
:10404000CE0189519F4FC017D10729F4CDB7DEB7F4
:10405000E8E00C94B435C93123E0D20740F4FE0106
:10406000EE19FF09EC0DFD1D60810E941D362196A1
:10407000E7CFCF93DF93C7EED0E060E0CE010E94A0
:104080001D362196C11584E0D807B9F7DF91CF918D
:104090000895A4E0B0E0EFE4F0E20C949735F82E38
:1040A0002FE0281708F4A5C08FEF93E00E940F3689
:1040B00081119FC007EE10E0F11036C019821A82FC
:1040C0001B821C82BB24BA9478015FEFE51AF50AC3
:1040D000C8010E940F3689831A82882309F489C097
:1040E000813009F07FC0680182E0C80ED11CC70191
:1040F0000E940F36E82E8A83882309F47AC0C6010D
:104100000E940F36F82E8FEF8E0D8330D8F46801A1
:10411000E3E0CE0ED11CFB82FF2021F0CE01019600
:104120000E942E238601D0CF011544E0140709F424
:1041300060C0C8010E940F36811101C0FA940F5F60
:104140001F4FBACF8BEF8E0D833030F5C801039629
:10415000FB826C01FF2031F36801F4E0CF0ED11C2B
:104160000E940F368C838823E9F28B819C818130F9
:104170002FEF920710F0982F882746E0E41631F0D1
:1041800057E0E51631F00E94BB1DCCCF0E94701D98
:10419000C9CF0E94961DC6CF84E0E812C3CF680144
:1041A000E4E0CE0ED11CC80103960E940F36FF201A
:1041B00001F18823F1F08150990BB89E9001B99ECE
:1041C000300D11244F2D4150550BCA01820F931F02
:1041D000019708F4A7CFEFE9FFE03197F1F700C0AE
:1041E0000000F6CF60E0CE0101960E94C822670170
:1041F00099CF2496E9E00C94B335CF93DF93EC018B
:10420000FB018281882309F464C1C330FDE5DF0727
:10421000E0F5CA3F9CE5D90730F49E0122503C45A9
:1042200024313105D8F50E94871190937004809352
:104230006F04C231ECE5DE0709F41FC108F06EC05F
:10424000C9308CE5D80709F4F2C008F03FC0C5308A
:10425000ECE5DE0709F4DBC058F5C3308CE5D80780
:1042600009F4CDC008F0CFC080916F048160C230E6
:10427000DC4509F4AEC080916F04909170040E94F7
:1042800095110E94B50B80E009C0C53AEDE5DE0747
:1042900051F238F4C1369DE5D90729F2DF91CF916B
:1042A00008959E012D5A3D4523303105B8F7BBCF07
:1042B00080916F048062C730FCE5DF0709F489C094
:1042C00008F4B1C080916F04806483C0CD309CE558
:1042D000D90709F4BAC070F480916F048E7FCB3097
:1042E000FCE5DF0709F475C008F4A7C080916F04EE
:1042F0008D7F6FC0CF309CE5D90709F4B6C008F4B4
:10430000A8C0C031FCE5DF0709F4B3C0C131DC450A
:1043100009F0B1CF80916F048F7B5BC0CF3F9CE5EC
:10432000D90709F4B4C098F5CA3FFCE5DF0709F4E2
:1043300072C0B8F4C4319CE5D90709F4B6C008F4DA
:10434000A2C0C531DC4509F096CF80916F0482FB95
:10435000992790F921E0922790FB82F990FB83F94D
:1043600038C0CC3F8CE5D80709F477C008F457C0B3
:10437000CD3FECE5DE0709F474C0809170048360E2
:10438000CE3FDC4509F077CF8093700474CFC136FF
:104390008DE5D80709F496C068F4C130EDE5DE0775
:1043A00009F48CC008F477C0C230DD4509F063CF52
:1043B00080E085C0CD3A9DE5D907E9F068F4909199
:1043C0006F04892F8E7F90FF8160C53ADD4509F02B
:1043D00052CF80936F044FCFCE3A8DE5D80789F145
:1043E000CF3ADD4509F047CF90917004892F877F40
:1043F00093FF8860C9CF809170048860C5CF809199
:104400006F048260E6CF80916F048460E2CF809178
:104410006F048860DECF809170048160B5CF809199
:1044200070048260B1CF80916F048061D2CF0E940E
:10443000B50B80916F048068CCCF80916F048C6045
:10444000C8CF80917004877F9FCF80916F048B7F4E
:10445000C0CF80916F04877FBCCF809170048E7F26
:1044600093CF809170048D7F8FCF80916F048F7E6A
:10447000B0CF80916F048F7DACCF0E94B50B80913F
:104480006F048F77A6CF80916F04837FA2CF809136
:1044900070048C7F79CF80917004982F90959170E3
:1044A0008E7F892B90FB81F96FCF0E94B50B909185
:1044B0006F04892F97FB87F980588BCF81E00E948A
:1044C0002112D9CE90916F04892F8F7E94FF806145
:1044D00080CF81E0E3CEB0E0A0E0E1E7F2E20C942F
:1044E0009935E82FF0E0E75EFD4FD490282F269510
:1044F0002695269530E0F901E754FD4F0491877029
:1045000010E0082E02C0159507950A94E2F7017095
:104510001127F901E755FD4FE490F12C082E02C058
:10452000F594E7940A94E2F791E0E922FF24F90177
:10453000E756FD4FC491D0E002C0D595C7958A9546
:10454000E2F7C170DD270115110519F081EE0E9417
:104550007508E114F10419F086EE0E9475088D2D9E
:104560000E941009E114F10419F086EE0E94C608B9
:104570000115110519F081EE0E94C608CD2B19F026
:104580008CE20E941009CDB7DEB7E7E00C94B53598
:10459000EF92FF920F931F93CF93DF93EC01162FAF
:1045A0000AE08881882309F454C0813009F04EC0A4
:1045B0008981813099F47E0122E0E20EF11C8A812A
:1045C0000E941009E7012196812F815050F3EFE9F5
:1045D000FFE03197F1F700C00000F7CF823041F4DF
:1045E0007E0182E0E80EF11C8A810E947508EACF04
:1045F000833041F47E01E2E0EE0EF11C8A810E94DC
:10460000C608E0CF843011F02196DDCF2A812296B2
:1046100090E080E0AE014F5F5F4F2053330B2A30B4
:10462000310548F0019778F2EFE9FFE03197F1F7B3
:1046300000C00000F7CF089FB001099F700D112442
:10464000C901860F971F2981EA01E4CF0E946B22DE
:10465000BACFCDB7DEB7E6E00C94B63560E00E9485
:10466000C82208958FE891E00197F1F700C000009B
:10467000089581E080931F0485988D9A84988C9A80
:104680000E94322320911F0441E254E0FA018E2F50
:10469000841B821708F008958FB185FB882780F965
:1046A0007C9904C090E0892B8193F1CF92E0FBCFFD
:1046B000A4E1B0E0EEE5F3E20C94933510E000E005
:1046C00084E0C82ED12C9DEF992E882483942CEF62
:1046D000722E80911F04181728F0802F6496EDE049
:1046E0000C94AF35E12EF12CEFB1E5FBEE27E0F9AC
:1046F0007C9991C080E08E2BD701AF5DBB4FEC91D0
:104700009E2F9370981709F484C0EE0FEE0FE82BDC
:10471000EC93EF70F0E0E057FE4FC701805E9B4FD7
:104720005C018081F5019081890F808320E08430D5
:104730008CF1F701E25EFB4F80818F5F80830E94E6
:10474000982C1B877C868D868160782F9F878E872B
:10475000412F5CEF61E08F850E942A088FE39FE183
:104760000197F1F700C000000E94982C188B798AFD
:104770001A8A8160782F9C8B8B8B412F5CEF60E0D5
:104780008C890E942A08EFE3FFE13197F1F700C01E
:10479000000021E0F50180818D3F8CF5F701E25E9C
:1047A000FB4F8081815080830E94982C19839A82CC
:1047B0008B828160782F9D838C83412F5DEF61E038
:1047C0008D810E942A088FE39FE10197F1F700C0D5
:1047D00000000E94982C1E839F8218868160782F8B
:1047E0009A878987412F5DEF60E08A850E942A08B9
:1047F000EFE3FFE13197F1F700C0000021E0F501A0
:104800008081082E000C990BB6010E946D358083C3
:10481000022B1F5F5ECF82E06ECF809102011F925C
:104820008F93809103011F928F93809106011F92B5
:104830008F93809107011F928F93809108011F929F
:104840008F93809109011F928F9389EC92E09F933F
:104850008F930E944F068DB79EB70E960FB6F894B1
:104860009EBF0FBE8DBF0895883228F58E3108F0A7
:1048700072C08B3041F130F4873009F4CFC088E248
:1048800094E0E0C0833109F45FC08431C1F78AE469
:1048900094E00E94B60580912604882309F4FEC0A6
:1048A00010922604109225041092240410922304DE
:1048B0001092220420C08F3409F4C7C0D8F5893281
:1048C00031F38833E1F68DE494E00E94B6050E944E
:1048D0000D241F9281E08F931F9288E08F9386E4CE
:1048E00093E09F938F930E944F060F900F900F902D
:1048F0000F900F900F9020912604222309F4C9C035
:104900008091220490912304009711F480EA91E0B1
:104910009F938F931F922F9386E194E09F938F93A1
:104920000E944F060F900F900F900F900F900F90D6
:1049300081E00895813509F49CC008F49CC082355B
:1049400009F09DCF81E082C08CE394E00E94B6051F
:104950000E940D24D0CF8D5180932604833009F41A
:1049600042C058F48130C1F08230A1F11092260487
:1049700089E394E00E94B6051BC0853009F445C068
:10498000D8F1863099F782E091E0909325048093E6
:10499000240488EE91E008C089E091E0909325041A
:1049A0008093240484EA91E090932304809322046A
:1049B00080912604882309F49ECF1F928F9385E36C
:1049C00094E09F938F930E944F060F900F900F904B
:1049D0000F9091CF88E091E0909325048093240478
:1049E0008DEA91E0E1CF87E091E0909325048093F8
:1049F000240489EB91E0D8CF86E091E090932504E0
:104A00008093240486EC91E0CFCF83E091E09093F3
:104A100025048093240485ED91E0C6CF81E0809346
:104A2000090184E1809308018AE0809307018EE107
:104A30008093060188E08093030188E2809302015D
:104A40008BE294E00E94B60556CF8AE0E091240400
:104A5000F09125043097D1F02081082E000C990B9D
:104A6000820F911D8F3F910541F03CF08FEF8083C5
:104A700007C08FEFEBCF86EFE9CF97FFF8CF10821B
:104A800080811F928F9382E294E09BCF8FE194E02C
:104A9000D9CF82E194E00E94B6054ACF80E0089524
:104AA000CF93C82F1F928F9383E694E09F938F93A9
:104AB0000E944F0681E001C0880FCA95EAF70E9464
:104AC000080C0E94B50B0F900F900F900F90CF9194
:104AD0000895B0E0A0E0EFE6F5E20C949935EBEF35
:104AE000E80FEF3308F044C1F0E0EB58F94C0C94B8
:104AF00081350E9482111F928F9383E198E09F93EA
:104B00008F930E944F060E947D1183FB992790F995
:104B10001F929F9382FB992790F91F929F9381FB8D
:104B2000992790F91F929F93982F91701F929F93AE
:104B30001F928F938AEC97E09F938F930E944F066A
:104B40000E94871193FB222720F91F922F9387FB46
:104B5000222720F91F922F9386FB222720F91F92EC
:104B60002F9385FB222720F91F922F9384FB222766
:104B700020F91F922F9383FB222720F91F922F9356
:104B800082FB222720F91F922F9391FB222720F9E5
:104B90001F922F93292F21701F922F9381FB222781
:104BA00020F91F922F93282F21701F922F939F93EC
:104BB0008F938BEC96E09F938F930E944F068DB757
:104BC0009EB78A960FB6F8949EBF0FBE8DBF81E048
:104BD0001CC083ED98E00E94B6050E941E12F7CF1C
:104BE00086E195E00E94B605F2CF80917A03807F3E
:104BF00080937A038FEE94E00E94B6058FEC98E0E4
:104C00000E94B60581E080932704CDB7DEB7E7E0C8
:104C10000C94B53583EB98E00E94B60580911C0496
:104C200090911D04892B99F20E944E07D0CF90914C
:104C30007A03892F8E7F90FF816080937A0380FFB3
:104C400003C087EA98E0CECF8AE998E00E94B605D3
:104C500080917A03817F80937A03B9CF90917A0310
:104C6000892F8D7F91FF826080937A0381FF08C036
:104C70008DE898E00E94B60580917A038160EBCFC1
:104C80008FE798E0AFCF90917A03892F8B7F92FFC7
:104C9000846080937A0382FF03C080E798E0EACFC4
:104CA00080E698E09FCF90917A03892F877F93FFCA
:104CB000886080937A0383FF03C084E598E0DACFAD
:104CC00087E498E08FCF8DEF91E09F938F938CEEE8
:104CD00094E09F938F930E944F060F900F900F9038
:104CE0000F9075CF0E94A42C062FF72EE82ED92EF8
:104CF000C0916F04C7FBCC27C0F910916E04D0910E
:104D000019010E94CB2ADF92EF92FF920F931F921C
:104D1000CF931F921F931F92DF931F928F9388E66A
:104D200094E09F938F930E944F068DB79EB70E9687
:104D30000FB6F8949EBF0FBE8DBF49CF0E94B50B32
:104D400090916F04892F97FB87F9805880936F04A7
:104D500087FF03C08DE398E045CF82E398E042CF20
:104D600080E00E94502533CF8953FBCF8D51F9CF7E
:104D700080E398E00E94B60580E047CF80E0089588
:104D80000E94BE260895CF93C82F809127048130BA
:104D9000C1F0882339F0823009F444C0109227040E
:104DA00080E00DC00E9437108232D1F78C2F0E9414
:104DB000BE2681111BC08C2F0E9469258170CF9166
:104DC00008950E943710823289F38C2F0E94C026EA
:104DD00081111BC0C431D9F060F4CB3071F0C03107
:104DE000D1F08DE594E00E94B60513C081E090E01B
:104DF000E5CFC93261F0C833A1F78FEE94E00E948D
:104E0000B6058FE594E00E94B60581E0D7CF1092F9
:104E1000270480E0D3CF82E08093270488E30E94B8
:104E20003424F3CF8C2F0E94342481E0C8CFCF9359
:104E3000DF93EB0186319C4511F50E9437109A8172
:104E4000992399F08A7A91E009F490E090932804EC
:104E5000811109C089E20E94E70F0E949F1080E043
:104E6000DF91CF91089585E3F6CF809128048111D9
:104E700004C089E20E94EF0FF0CF85E3FBCF81E011
:104E8000EFCFFC018481862351F492819923B9F0FC
:104E90006923808583FF05C081E061110FC080E038
:104EA0000895892F8F7092959F70982B862F8F7001
:104EB00062956F70682B81E09613F1CF089581E0C1
:104EC000FDCFCF93DF93EC016091330470913404F4
:104ED00080913504909136040E94BF2C643F71404C
:104EE0008105910518F58091330490913404A091C7
:104EF0003504B091360480932F0490933004A0932E
:104F00003104B093320484EF91E0A0E0B0E08093EC
:104F10002B0490932C04A0932D04B0932E04D093D3
:104F20002A04C0932904DF91CF9108950E94A42CF4
:104F300060932F0470933004809331049093320473
:104F400082E390E0A0E0B0E0E2CFFF920F931F93E6
:104F5000CF93DF93F82E00913A0410913B04011592
:104F6000110509F44DC010922A04109229040E94E0
:104F700063100E945D1000913A0410913B04D80127
:104F80001696CD91DC919E013A9521153F4108F48A
:104F9000D07ED1E0C11101C0D0E0D8011996ED91C9
:104FA000FC911A97309731F01B966D917C9180E0BF
:104FB0000995D823DD2339F08CEF8C0F813A30F539
:104FC0008C2F0E94EF0FFF2099F0E0913A04F091AE
:104FD0003B04808584FD0CC080913904882341F016
:104FE000808191819C0121503109203B3D45A0F0F9
:104FF0000E949F1010923B0410923A0410923904C0
:10500000C801CDB7DEB7E5E00C94B7350E949F101C
:105010008C2F0E94C608D7CF0E946127E9CF10923B
:105020000C0180E00E94A527089580910C0188233F
:1050300019F00E940F28089581E080930C010895D3
:105040000F931F938091290490912A04892B89F151
:1050500060912F047091300480913104909132045A
:105060000E94BF2C00912B0410912C0420912D0440
:1050700030912E046017710782079307D0F080915A
:10508000290490912A040E94970610922A041092F3
:10509000290410922F0410923004109231041092BF
:1050A000320410922B0410922C0410922D041092B2
:1050B0002E041F910F910895A4E0B0E0E2E6F8E21B
:1050C0000C948E358C017A836983DB0112965C9097
:1050D0005520B1F08F35BDE59B0759F08036EDE5E1
:1050E0009E0759F08E359D4559F40E941528312CA4
:1050F0000DC081E080930C01FACF0E940F28F7CFFA
:1051000030900C01311007C033243394832D249642
:10511000E2E10C94AA35680120EEC21AD1080E947F
:105120003710F82E0E94FE0F482E0E946610482A63
:105130004F2838E0C316D10408F094C098012770B6
:10514000332781E090E001C0880F2A95EAF75520C7
:1051500009F485C0482AA981BA818D919C910E9449
:10516000DA0C80900A0190900B018114910409F4EB
:10517000E1C021E030E0390102C0660C771C8A955D
:10518000E2F7E0913A04F0913B04FA83E983A090BE
:105190003704B0903804212CE22DF0E0EE0FFF1F11
:1051A000E80DF91D208131813C832B8321153105C8
:1051B00009F4C0C0411005C0D90112968C9181112B
:1051C0008BC0EB81FC81838190E086219721892B24
:1051D00009F482C08085982F977009F487E0F8E081
:1051E000CF16D10408F058C0552009F451C0869557
:1051F0008170882309F470C0AB81BC81ED90FC9074
:105200000E151F0519F4552009F466C0EB81FC81C9
:1052100029813A81E217F30709F45EC00584F68517
:10522000E02D309721F08081882309F455C0642D4A
:105230008B819C810E944127882309F44DC00E1563
:105240001F0509F08BC00115110509F48CC0511020
:105250008CC0EA14FB0409F03FC0512C86C0809535
:10526000482279CF552009F44EC01093380400939A
:1052700037040E94A42C6093330470933404809309
:1052800035049093360410922A041092290463CFB7
:1052900082FB882780F9ADCF5520F1F08170A9CF2E
:1052A0000E94C60883C00497813A910548F4802F74
:1052B0000E94E70F552009F427CF0E949F1017CFB7
:1052C0000E949F108FE39CE90197F1F700C0000056
:1052D000802F0E947508EECF23945ECFFC012081C1
:1052E00031812017310731F4511007C01092390471
:1052F00080E031C0552009F407CFDC0118968C916D
:1053000085FD02CFF5CF8091370490913804801746
:10531000910781F4109238041092370410923304EC
:1053200010923404109235041092360410922A041C
:105330001092290480913A0490913B04009709F45B
:10534000E3CEA8E0CA16D10448F6642D0E94412796
:105350008111DACE81E00E94A527D8CEE114F104B4
:1053600009F077CF512CF12CE12C80E00E94A52789
:10537000EB81FC81F0933B04E0933A0481E080935D
:10538000390485810E946010511010C0E114F104AD
:1053900069F0AB81BC818D919C919C0124503109B5
:1053A000213A310508F07CCF0E94EF0FEB81FC81A0
:1053B00006811781C8019A9581159F4108F4107ED6
:1053C000FF24F394C8010197803B9D4508F0F12C20
:1053D000AB81BC811996ED91FC911A97309731F011
:1053E0001B966D917C9181E00995F822FF2081F058
:1053F000EB81FC81868197810E945C060E945A1095
:10540000C801F8E0CF16D10408F04DCF0E94612703
:105410000E949F104FCF0F931F93CF93DF93C42F02
:10542000D22FFC0182818823C9F040933E040E9460
:10543000982C90933D0480933C0480E28C0F88303C
:1054400040F4C77081E001C0880FCA95EAF70E9456
:105450001909DF91CF911F910F91089510913E048A
:10546000141332C080913C0490913D040E94B02CF2
:10547000883C910548F5C0E2CD0F1D17B9F080E2D8
:10548000810F883040F4177081E001C0880F1A95B1
:10549000EAF70E942009C83048F481E09D2F9770F8
:1054A00001C0880F9A95EAF70E941909802F0E947F
:1054B0001009C83070F6D77081E001C0880FDA9506
:1054C000EAF70E942009C5CF80E28C0F883008F6E9
:1054D000C77081E001C0880FCA95EAF7F2CF0F9339
:1054E0009C01CB01233F4CE5340759F1A8F4283D3A
:1054F000FCE53F0701F1293D4CE53407D1F1273D9B
:105500003C4591F406E221EE41EE67ED7CE50E9418
:105510000B2A80E00F910895253FFCE53F07E9F055
:10552000B0F0263F3C45F9F0FC018281882339F137
:1055300010923E04EFCF07E225EE45EE68ED7CE5E4
:10554000E6CF06E221EE40EE63EF7CE5E0CF07E236
:1055500025EE44EE64EF7CE5DACF06E221EE42EE82
:1055600065EF7CE5D4CF07E225EE46EE66EF7CE5FD
:10557000CECF08E221E045EE69ED7CE5C8CF81E0C1
:10558000C9CF9093D5028093D40208959093440498
:10559000809343040895E0914304F09144043097CC
:1055A00029F00190F081E02D0995089580E008959B
:1055B000E0914304F0914404309799F0209119014F
:1055C000222359F020916F0427FF07C0DC012C91A2
:1055D00011962C93119726E02C930280F381E02DF5
:1055E00009950895E0914304F0914404309739F00F
:1055F00022E0DC012C930480F581E02D09950895CB
:1056000020914104309142042817390771F090939A
:10561000420480934104E0914304F09144043097A4
:1056200021F00680F781E02D0995089520913F042F
:10563000309140042817390771F09093400480930B
:105640003F04E0914304F0914404309721F000843A
:10565000F185E02D09950895FC013296809119019C
:10566000882321F080916F049EE187FF96E080E01F
:10567000915008F4089521912223D1F38F5FF8CF40
:10568000662301F1209119012223F1F020916F048A
:1056900027FF1AC0462F4695469546954E3190F401
:1056A000677021E030E002C0220F331F6A95E2F7F5
:1056B000840F911DFC01828190E02823392381E031
:1056C000232B69F480E00895FC013296089621911D
:1056D000261721F0E817F907D1F7F4CF81E00895F4
:1056E0009C01FC0132969FEF80E04191461751F0FA
:1056F0009F3F19F4411101C0982F8F5F8630A9F7A1
:105700009F3F09F40895290F311D97FD3A95F9013E
:1057100062830895FC01329608962191261303C0F6
:10572000DF0111971C92E817F907B9F70895E62FE2
:10573000E695E695E695EE3168F4E80FF92FF11D50
:10574000677021E030E001C0220F6A95EAF782819C
:10575000822B82830895E62FE695E695E695EE3155
:1057600070F4E80FF92FF11D677021E030E001C0FF
:10577000220F6A95EAF720958281282322830895D3
:1057800020911901222339F020916F0427FF03C0D3
:105790000E94972B08950E94702B08952091190163
:1057A000222339F020916F0427FF03C00E94AB2B06
:1057B00008950E948A2B0895FC0132968091190168
:1057C000882351F080916F0487FF06C08EE1DF01CE
:1057D0001D928A95E9F7089586E0F9CF46E050E0FA
:1057E0000E94E23521E0892B09F420E0822F089500
:1057F00008950E94F82B0895811106C081E08093DE
:1058000045040E94F92B089582E0F9CF83E080934C
:1058100045040E94F92B08950E94FC2B089581E015
:10582000809345040E94F92B08950E940F2C08953F
:10583000089508950E94192C0895089508950E94CE
:10584000182C08950E941D2C0E94F1150E941E2CF8
:1058500080E00E94301521E0892B09F420E0822F9E
:10586000089585B7806885BF85B7806885BF08952E
:105870001F921FB61F9211248F939F93AF93BF93D4
:1058800080914604811113C080917704909178042F
:10589000A0917904B0917A044196A11DB11D809325
:1058A000770490937804A0937904B0937A04BF911D
:1058B000AF919F918F911F901FBE1F90189580915F
:1058C0007F04843031F10E94C6071092460488E1BB
:1058D00090E020E40FB6F894A895809360000FBE86
:1058E0002093600083B7817F846083BF83B781602A
:1058F00083BF7894889583B78E7F83BF0FB6F89463
:10590000A89580916000886180936000109260008B
:105910000FBE08950E94B50B0E94CB07089582E048
:1059200084BD93E095BD9AEF97BD80936E00089576
:105930002FB7F8948091770490917804A09179041E
:10594000B0917A042FBF08952FB7F894609177042F
:10595000709178048091790490917A042FBF089512
:105960009C014FB7F8948091770490917804A091AE
:105970007904B0917A044FBF821B930B0895CF92A4
:10598000DF92EF92FF922FB7F894C0907704D090F7
:105990007804E0907904F0907A042FBFA701960173
:1059A000261B370B480B590BCA01B901FF90EF902A
:1059B000DF90CF90089578941F921FB61F92112404
:1059C0008F939F93AF93BF938091770490917804C6
:1059D000A0917904B0917A040196A11DB11D809324
:1059E000770490937804A0937904B0937A04BF91DC
:1059F000AF919F918F911F901FBE1F90189587E7C1
:105A000097E7909301088093000888E19AE00FB629
:105A1000F894A895809360000FBE90936000FFCF2C
:105A200088E19AE00FB6F894A895809360000FBEC5
:105A300090936000FFCF80916D04089508959C01BC
:105A400084E08093E9009FEF8091E800915085FD0C
:105A500006C085ED8A95F1F700009111F5CF809190
:105A6000E80085FF0CC050E040E066E070E0C9014E
:105A70000E948C308091E8008E778093E800089532
:105A8000CF93DF93EC01809119018823B1F18091CC
:105A90006F0487FF32C060E284E08093E9008FEFFB
:105AA0009091E800815095FD06C095ED9A95F1F72B
:105AB00000008111F5CF8091E80085FF1BC0809127
:105AC000190170E050E040E0811104C050E040E076
:105AD00068E070E0CE010E948C308091E8008E7703
:105AE0008093E80080E2FE01ADE4B4E001900D9205
:105AF0008A95E1F7DF91CF91089568E081E0CDCFFD
:105B00008093490470934B0460934A0480917F040E
:105B10008430F9F48093E9008FEF9091E800815090
:105B200095FD06C095ED9A95F1F700008111F5CF2E
:105B30008091E80085FF0DC050E040E063E070E038
:105B400089E494E00E948C308091E8008E77809305
:105B5000E8000895BC0184E00E94802D0895BC01F6
:105B600083E00E94802D0895CF93FC01603221F5DF
:105B700080917F04843001F5C091E900CF702091BD
:105B8000EC00922F917020FD90E8C92B82E0809369
:105B9000E9008091E80080FF0CC050E040E060E246
:105BA00070E0CF010E948C308091E8008E77809366
:105BB000E800CF70C093E900CF91089588EF98E096
:105BC0000E94B60580917E04811109C00E946B324B
:105BD0000E94C8328091E20084608093E2000895C0
:105BE00084EF98E00E94B60510927E04089580EF3D
:105BF00098E00E94B6050E940F2C08958CEE98E064
:105C00000E94B60560917B0481E0611101C080E0D3
:105C10000E94062C089588EE98E00E94B6059091A7
:105C20007F0481E0943009F080E060917B040E9461
:105C30000C2C0895209148042F5F822F62E30E946C
:105C40006135992319F0209348040895109248046F
:105C500080914C048823F1F080917F048430C1F45A
:105C60009091E9009F702091EC00822F817020FDBF
:105C700080E8892B95E09093E9009091EB0090FFEC
:105C800004C09091EE0097FD08C08F708093E900EA
:105C900010924C0408951092F1009091E80095FD47
:105CA000FACF9091E80090FFF0CF9091E8009E77B6
:105CB0009093E800EACF42E061EC81E00E94E73196
:105CC00042E261EC84E00E94E73142E261EC82E072
:105CD0000E94E73142E260EC83E00E94E73142E259
:105CE00061EC85E00E94E73190917F0481E094307F
:105CF00009F080E060917B040E94FC2B0895809164
:105D00008104833009F463C030F48130E1F18230E2
:105D100009F4A0C008958A3009F48CC08B3009F4CE
:105D200071C0893009F052C080918004813209F03D
:105D30004DC08091840490918504009719F00297DA
:105D400009F044C08091E800877F8093E80080914B
:105D5000E80082FF37C09091F3008091F200029733
:105D600031F48091F100813011F0863021F480917E
:105D7000F10080936D048091E8008B778093E800B8
:105D80000E941B3223C080918004813AF9F48091F3
:105D9000E800877F8093E8008091840490918504D7
:105DA000892B61F460E28DE494E070E00E942A3176
:105DB0008091E8008B778093E800089560E090E0A0
:105DC00080E0F3CF80917F048111C1CF089580914D
:105DD0008004813AD9F78091840490918504892BBD
:105DE000A9F78091E800877F8093E8008091E80020
:105DF00080FFFCCF809119018093F1008091E80031
:105E00008E77BCCF80918004813201F78091840429
:105E100090918504892BD1F68091E800877F80934B
:105E2000E8000E941B3280918204809319010E9435
:105E3000B50B089580918004813241F68091E8008D
:105E4000877F8093E8000E941B32809183048093B7
:105E50006E04089580918004813A09F0B7CF809153
:105E6000E800877F8093E8008091E80080FFFCCF06
:105E700080916E04C1CF9FB7F89410924C049FBFDD
:105E800090917F04943009F048C02091E9002F7070
:105E90003091EC00932F917030FD90E8922B25E02B
:105EA0002093E9002091EB0020FF34C02091EE0008
:105EB00027FF30C020914704222321F02091E800E1
:105EC00025FF28C01092470426E03091E80035FFF6
:105ED00014C08093F1008091E80085FD27C0809177
:105EE000E80080FFFCCF8091E8008E778093E80087
:105EF0009F709093E90080E0089530917F043430E2
:105F000049F43091EB0035FD05C0215041F481E0AA
:105F1000809347049F709093E9008FEF0895EFE915
:105F2000FFE03197F1F700C00000CFCF8FB7F894B2
:105F300021E020934C048FBFDBCF84B7877F84BFE1
:105F40000FB6F894A89580916000886180936000F6
:105F5000109260000FBE80E890E00FB6F894809336
:105F60006100909361000FBE0E94152C08950E945D
:105F70006B320E94C832E2EEF0E080818460808360
:105F800078940E94463508958DE091E00E94C62ADB
:105F9000089580917F04853051F484EE98E00E944A
:105FA000B60580917F04853019F00E948A2C0895EF
:105FB0000E945F2C80917D04882399F30E94222CFB
:105FC000882379F30E9476300E94B50BEACFA0E2D5
:105FD000B0E0EDEEFFE20C949E3580917F048430BA
:105FE00009F583E08093E9008091E80082FF1AC000
:105FF0008091E80090E085FF09C050E040E060E259
:1060000070E0CE0101960E94DB3091E08091E800C3
:106010008B778093E800992329F060E2CE01019606
:106020000E943C1AA096E2E00C94BA350E94193006
:106030000895292F33272330310521F168F42130C9
:10604000310509F449C02230310509F44AC090E015
:1060500080E030E020E029C02132310581F1223298
:106060003105A9F76430710590F7FB01EE0FFF1FB2
:10607000ED53FD4F2081318161547D4FFB018081C3
:1060800090E013C099278130910599F0009741F075
:106090008230910589F00397D1F6ECEFF8E002C069
:1060A000E4E4F9E0849190E09F01FA0131832083D8
:1060B0000895E2E3F9E0F6CFEAE1F9E0F3CF6430E6
:1060C000710528F6660F771FFB01E553FD4F208110
:1060D000318189E090E0E9CF82E190E023EC39E082
:1060E000E4CF8BE790E028E439E0DFCF80E189BDA1
:1060F00082E189BD09B400FEFDCF8091D8008F7D7B
:106100008093D8008091E00082608093E0008091CD
:10611000E00081FDFCCF0895AF92BF92CF92DF9255
:10612000FF920F931F93CF93DF936C01EB018A01D2
:106130000E943A32F82E811123C00115110539F061
:10614000F80180819181C81BD90BC80ED91EB12CD2
:10615000A12C2097A9F08091E80085FD22C08091B4
:10616000E8008E778093E80001151105A1F0F80191
:1061700080819181A80EB91EB182A08285E0F82E9F
:106180008F2DDF91CF911F910F91FF90DF90CF90D6
:10619000BF90AF9008950E943A328823D1F2F82E32
:1061A000EFCFF60181916F018093F1002197FFEF0E
:1061B000AF1ABF0ACECFAF92BF92CF92DF92FF92BB
:1061C0000F931F93CF93DF936C01EB018A010E9421
:1061D0003A32F82E811123C00115110539F0F8016A
:1061E00080819181C81BD90BC80ED91EB12CA12C5E
:1061F0002097A9F08091E80085FD22C08091E800F9
:106200008B778093E80001151105A1F0F8018081DA
:106210009181A80EB91EB182A08285E0F82E8F2D43
:10622000DF91CF911F910F91FF90DF90CF90BF90A2
:10623000AF9008950E943A328823D1F2F82EEFCF22
:106240008091F100F60181936F012197FFEFAF1A62
:10625000BF0ACECFFC0180918604909187048617F7
:106260009707A0F06115710529F49091E8009E77D9
:106270009093E80090E06115710551F4911108C008
:106280008091E80082FF34C080E00895BC01F2CF25
:1062900080917F048823C1F18530C1F18091E800AD
:1062A00083FD30C08091E80082FDEACF8091E80054
:1062B00080FFE1CF8091F3002091F200382F61152B
:1062C000710519F02830310558F091E0283031057A
:1062D00009F090E02091E8002E772093E800CBCFE2
:1062E00081918093F100615071092F5F3F4FE7CF9B
:1062F00080917F04882341F0853041F08091E8004F
:1063000083FFBECF81E0089582E0089583E0089581
:10631000FC01809186049091870486179707A0F06E
:106320006115710529F48091E8008E778093E8006B
:1063300090E06115710551F4911108C08091E80059
:1063400082FF35C080E00895BC01F2CF80917F04C8
:106350008823C9F18530C9F18091E80083FD31C0FF
:106360008091E80082FDEACF8091E80080FFE1CFD4
:106370008091F3002091F200382F6115710519F01A
:106380002830310558F091E02830310509F090E0CF
:106390008091E8008E778093E800CBCF8491809342
:1063A000F1003196615071092F5F3F4FE6CF809128
:1063B0007F04882341F0853041F08091E80083FF1D
:1063C000BDCF81E0089582E0089583E00895982F7D
:1063D000973028F08F708093E90081E008959093C2
:1063E000E900242F762F50E0981731F07091EC00DF
:1063F0002091ED005091F00021FD02C09F5FE8CF99
:106400003091EB003E7F3093EB003091ED003D7F0B
:106410003093ED003091EB0031603093EB007093DE
:10642000EC002093ED005093F0002091EE0027FD4A
:10643000E5CF80E008958091800487FF13C08091AC
:10644000E80082FF06C08091E8008B778093E80027
:1064500004C080917F048111F2CF089580917F0460
:106460008823D9F38091E80080FFF8CF8091E8007D
:106470008E77ECCF2091E4003091E50095E6A901FC
:106480002091EC00822F817020FF06C08091E800EF
:1064900080FF06C080E008952091E80022FD1AC028
:1064A00080917F04882389F0853089F08091EB000A
:1064B00085FD0FC02091E4003091E500421753079D
:1064C000F9F29150E1F684E0089582E0089583E0C6
:1064D000089581E008950E94DA320E94E232E0EEEF
:1064E000F0E0808181608083E8EDF0E080818F774B
:1064F000808319BCA7EDB0E08C918E7F8C93808156
:106500008F7E808310927E0408950F931F93CF9304
:10651000DF930E94DA320E94E232C8EDD0E0888137
:106520008F77888388818068888388818F7D88833E
:1065300019BC10927F0410927B0410927D0410927B
:106540007C0400EE10E0F80180818B7F80838881DD
:106550008160888342E060E080E00E94E731E1EE04
:10656000F0E080818E7F8083E2EEF0E080818160C8
:106570008083808188608083F80180818E7F808322
:10658000888180618883DF91CF911F910F91089559
:10659000E8EDF0E080818F7E8083E7EDF0E08081A0
:1065A0008160808384E082BF81E080937E040E94CA
:1065B00085320895E8EDF0E080818E7F808310922F
:1065C000E20008951092DA001092E10008951F92FF
:1065D0000F920FB60F9211242F933F934F935F9317
:1065E0006F937F938F939F93AF93BF93EF93FF939B
:1065F0008091E10082FF0BC08091E20082FF07C022
:106600008091E1008B7F8093E1000E941A2E80919F
:10661000DA0080FF19C08091D80080FF15C08091FA
:10662000DA008E7F8093DA008091D90080FF96C0D7
:1066300080E189BD82E189BD09B400FEFDCF81E022
:1066400080937F040E94DE2D8091E10080FF19C0BD
:106650008091E20080FF15C08091E2008E7F8093E0
:10666000E2008091E20080618093E2008091D80096
:1066700080628093D80019BC85E080937F040E94DB
:10668000FE2D8091E10084FF2BC08091E20084FF09
:1066900027C080E189BD82E189BD89B5982F9170BD
:1066A00080FFFBCF8091D8008F7D8093D8008091B0
:1066B000E1008F7E8093E1008091E2008F7E8093E5
:1066C000E2008091E20081608093E20080917B048F
:1066D000882309F449C084E080937F040E940B2E34
:1066E0008091E10083FF29C08091E20083FF25C0F3
:1066F0008091E100877F8093E10082E080937F04B6
:1067000010927B048091E1008E7F8093E100809164
:10671000E2008E7F8093E2008091E20080618093AE
:10672000E20042E060E080E00E94E7318091F0000A
:1067300088608093F0000E94F72DFF91EF91BF9148
:10674000AF919F918F917F916F915F914F913F9109
:106750002F910F900FBE0F901F90189519BC10929B
:106760007F040E94F02D70CF8091E30087FD93E0BD
:1067700090937F04B3CF1F920F920FB60F92112404
:106780002F933F934F935F936F937F938F939F9339
:10679000AF93BF93CF93DF93EF93FF93D091E90033
:1067A000DF708091EC00C82FC17080FDC0E81092AE
:1067B000E9008091F000877F8093F00078940E9438
:1067C000FF331092E9008091F00088608093F00020
:1067D000CD2BCF70C093E900FF91EF91DF91CF9166
:1067E000BF91AF919F918F917F916F915F914F91E9
:1067F0003F912F910F900FBE0F901F901895AAE216
:10680000B0E0E5E0F4E30C949D3580E894E020915D
:10681000F100FC012193CF01F4E088389F07B9F71C
:106820000E947F2E8091E80083FF1EC1809180042A
:10683000909181049A3008F017C1E92FF0E0EC54F0
:10684000F94C0C948135803899F0823809F00CC1EC
:10685000809184048F70873008F006C18093E9002E
:106860008091EB0085FB882780F91092E90006C033
:1068700080917C0490917D04911182609091E80058
:10688000977F9093E8008093F1001092F10080913F
:10689000E8008E77E5C0882309F4D3C0823009F080
:1068A000E3C0809182048111D6C0809184048F70EE
:1068B0002FEF280F263008F0D7C08093E9002091F1
:1068C000EB0020FFC8C0933031F48091EB00806270
:1068D0008093EB00C0C09091EB0090619093EB002F
:1068E00021E030E001C0220F8A95EAF72093EA0008
:1068F0001092EA008091EB008860EACF8111B4C069
:10690000109182041F778091E3008078812B80931F
:10691000E3008091E800877F8093E8000E941B32AB
:106920008091E80080FFFCCF8091E3008068809335
:10693000E30082E0111183E080937F0495C08058CA
:10694000823008F091C080918204909183048C3D44
:1069500023E09207A1F583E08A838AE289834FB717
:10696000F894DE01139620E03EE051E2E32FF0E0E0
:1069700050935700E49120FF03C0E295EF703F5F12
:10698000EF708E2F90E0EA30C0F0C7968D939D9304
:106990002F5F243159F74FBF8091E800877F8093A4
:1069A000E8006AE270E0CE0101960E942A318091EF
:1069B000E8008B778093E80057C0C096E7CF6091DE
:1069C000840470918504AE014F5F5F4F0E941630C2
:1069D000BC01892B09F448C09091E800977F9093FF
:1069E000E80089819A810E948831E1CF8038E1F501
:1069F0008091E800877F8093E80080917B048093FA
:106A0000F10045CF811130C090918204923060F541
:106A10008091E800877F8093E80090937B040E9438
:106A20001B3280917B04882311F084E005C08091A3
:106A3000E30087FDFACF81E080937F040E945B2E04
:106A400013C080918204813079F481E0933009F0A1
:106A500080E080937D041092E9008091E800877FB8
:106A60008093E8000E941B328091E80083FF0AC0F7
:106A70008091E800877F8093E8008091EB0080623E
:106A80008093EB00AA96E3E00C94B935CF93809104
:106A90007F048823A1F0C091E900CF709091EC00B1
:106AA000892F817090FD80E8C82B1092E9008091B9
:106AB000E80083FD0E94FF33CF70C093E900CF91BF
:106AC0000895991B79E004C0991F961708F0961B4A
:106AD000881F7A95C9F78095089597FB072E16F4BD
:106AE000009407D077FD09D00E94C53507FC05D07A
:106AF0003EF4909581959F4F0895709561957F4FD5
:106B00000895EE0FFF1F0590F491E02D0994692779
:106B10009627692778278727782708952F923F920D
:106B20004F925F926F927F928F929F92AF92BF929D
:106B3000CF92DF92EF92FF920F931F93CF93DF9349
:106B4000CDB7DEB7CA1BDB0B0FB6F894DEBF0FBEA6
:106B5000CDBF09942A88398848885F846E847D84F3
:106B60008C849B84AA84B984C884DF80EE80FD80F5
:106B70000C811B81AA81B981CE0FD11D0FB6F8946B
:106B8000DEBF0FBECDBFED010895AA1BBB1B51E1B7
:106B900007C0AA1FBB1FA617B70710F0A61BB70B8D
:106BA000881F991F5A95A9F780959095BC01CD0132
:106BB0000895FB01DC0102C005900D924150504048
:106BC000D8F70895FB01DC0104C08D910190801974
:106BD00021F441505040C8F7881B990B0895FB01E0
:106BE000DC0102C001900D9241505040D8F7089549
:106BF000DC0101C06D9341505040E0F70895DC0185
:106C0000CB01FC01F999FECF06C0F2BDE1BDF89AB7
:106C1000319600B40D9241505040B8F70895F9995B
:106C2000FECF92BD81BDF89A992780B50895A8E15D
:106C3000B0E042E050E00C940136262FF999FECFE7
:106C400092BD81BDF89A019700B4021639F01FBABF
:106C500020BD0FB6F894FA9AF99A0FBE08950396DC
:106C6000272F0E941E360E941D36252F0E941E3699
:106C7000242F0C941E360196272F0E941E360C944A
:106C80001D36DC01CB0103C02D910E944C364150D2
:106C90005040D0F70895262FF999FECF1FBA92BD24
:106CA00081BD20BD0FB6F894FA9AF99A0FBE0196ED
:106CB0000895F894FFCF62096209930993093E0A87
:106CC0005A0AC209C209650ACC0ADB0ADB0AF91BA7
:106CD000291C301C691C831CA41CB81CCB1C181D4F
:106CE0001D1D1B1C1B1C1B1C241D0A26F5251726FD
:106CF0007925B826B826F025B826B8264326B82622
:106D000053269E26B826B826B826B8267226B82658
:106D1000B8266326B8262E26B826B826B626B62666
:106D2000B626B626B626B626B626B626B626B02689
:106D3000B8260A26E925B826B826B826B826B826E1
:106D4000B826B826B826B826B826B026B826B8265B
:106D5000F025B826B426B426B426B426B426B42624
:106D6000B426B426B426B02623344B3434354B3401
:0C6D700034357E349F343435F63402355F
:106D7C004603280850011E0A14018B03011B2D40E9
:106D8C002D1F2DAF2DAA2D1E2D01784F78C5161E47
:106D9C0027FAE200E900EA00B500B600B700CD0022
:106DAC008301CC008A019201940121022302240266
:106DBC002502260227022A02B300B4006F007000DD
:106DCC00818283E200E900EA00B500B600B700CD8D
:106DDC00008301CC008A0192019401210223022438
:106DEC00022502260227022A02B300B4006F0070AB
:106DFC0000818283323133343536F7F6C697946688
:106E0C0000FF0100010000FFFF0000010001FF0076
:106E1C003F3F3F006D6B5F64656C6179006D6B5F2C
:106E2C00696E74657276616C006D6B5F6D61785F15
:106E3C007370656564006D6B5F74696D655F746F0D
:106E4C005F6D6178006D6B5F776865656C5F6D6118
:106E5C00785F7370656564006D6B5F776865656CF2
:106E6C005F74696D655F746F5F6D6178000A092DE1
:106E7C002056657273696F6E202D0A5649443A206C
:106E8C00307845454545284C756D61426F74292015
:106E9C005049443A20307832303233285369646593
:106EAC0073776974636829205645523A20307830DC
:106EBC003030310A4255494C443A202028417072F6
:106ECC002031302032303233290A4F5054494F4E42
:106EDC00533A204C554641204D4F5553454B45593F
:106EEC002045585452414B455920434F4E534F4C1B
:106EFC004520434F4D4D414E44204E4B524F203474
:106F0C003039360A4743433A20382E352E3020414B
:106F1C0056522D4C4942433A20322E312E302041CC
:106F2C0056525F415243483A20617672350A00400E
:106F3C0022BC22D50AF709190AD5095A09730993F3
:046F4C0009AC090083
:00000001FF
